:020000040800F2
:10000000000400201D8100081F8100081F810008D6
:100010001F8100081F8100081F8100081F81000840
:100020001F8100081F8100081F810008CDCC000837
:100030001F8100081F8100081F8100081F81000820
:100040001F8100081F8100081F8100081F81000810
:100050001F8100081F8100081F8100081F81000800
:100060001F8100081F8100081F810008C9C90008FE
:100070009DC9000871C9000845C900081DC90008CC
:10008000F1C80008C5C800081F8100081F810008CA
:100090001F8100081F8100081F8100081F810008C0
:1000A0001F8100081F8100081F8100081F810008B0
:1000B000FDCA0008B9CA00081F8100081F81000896
:1000C0001F8100081F8100081F8100081F81000890
:1000D0001F81000861CB00081F8100081F810008F4
:1000E0001F8100081F8100081F8100081F81000870
:1000F0001F8100081F8100081F81000899C800089F
:100100001F8100081F810008F1C900081F81000835
:100110001F8100081F8100081F8100081F8100083F
:1001200071C8000845C8000819C80008EDC70008D4
:10013000C5C700081F8100081F8100081F81000833
:100140001F8100081F8100081F8100081DC30008CF
:1001500099C700086DC7000841C700081F81000843
:100160001F8100081F8100081F8100081F810008EF
:100170001F8100081F8100081F8100081F810008DF
:100180001F8100081F8100081F8100081F810008CF
:100190001F8100081F8100081F8100081F810008BF
:1001A0001F8100081F8100081F8100081F810008AF
:1001B0001F8100081F8100081F8100081F8100089F
:1001C0001F8100081F8100081F8100081F8100088F
:1001D0001F8100081F8100081F8100081F8100087F
:1080000072B6374880F30888364880F309883648C6
:108010003649086040F20000CCF200004EF63471A0
:10802000CEF200010860BFF34F8FBFF36F8F40F2B5
:108030000000C0F2F0004EF68851CEF20001086058
:10804000BFF34F8FBFF36F8F4FF00000E1EE100AC8
:108050004EF63C71CEF200010860062080F31488D1
:10806000BFF36F8F04F059F904F088FE4FF05530DC
:108070001F491B4A91423CBF41F8040BFAE71D49D6
:10808000184A91423CBF41F8040BFAE71A491B4ACF
:108090001B4B9A423EBF51F8040B42F8040BF8E721
:1080A00000201849184A91423CBF41F8040BFAE7F6
:1080B00004F046FE04F061FE144C154DAC4203DAA8
:1080C00054F8041B8847F9E704F034FF114C124DB3
:1080D000AC4203DA54F8041B8847F9E704F04CBEBD
:1080E00000040020000C00200000000808ED00E063
:1080F0000000002000040020D4E20008000C002052
:10810000540D0020580D0020D034002000800008BD
:1081100000800008008000080080000870E700F080
:1081200000F8FEE72DE9F04F2DED108AC1F80CD0D4
:10813000C3689D46BDEC108ABDE8F08F002383F331
:1081400011882846A047002004F0D0FDFEE704F087
:10815000D9FD00DFFEE70000844641EA000313F08A
:1081600003036DD1403A41D351F8043B40F8043B3E
:1081700051F8043B40F8043B51F8043B40F8043B01
:1081800051F8043B40F8043B51F8043B40F8043BF1
:1081900051F8043B40F8043B51F8043B40F8043BE1
:1081A00051F8043B40F8043B51F8043B40F8043BD1
:1081B00051F8043B40F8043B51F8043B40F8043BC1
:1081C00051F8043B40F8043B51F8043B40F8043BB1
:1081D00051F8043B40F8043B51F8043B40F8043BA1
:1081E00051F8043B40F8043B403ABDD2303211D341
:1081F00051F8043B40F8043B51F8043B40F8043B81
:1082000051F8043B40F8043B51F8043B40F8043B70
:10821000103AEDD20C3205D351F8043B40F8043B40
:10822000043AF9D2043208D0D2071CBF11F8013B3E
:1082300000F8013B01D30B8803806046704700BF04
:10824000082A13D38B078DD010F003038AD0C3F113
:108250000403D21ADB071CBF11F8013B00F8013BF5
:1082600080D331F8023B20F8023B7BE7043AD9D3B4
:10827000013A11F8013B00F8013BF9D20B78037089
:108280004B7843708B78837060467047F0B48607F4
:1082900046D0541E002A3CD0CAB2034602E014F174
:1082A000FF3436D303F8012B9D07F8D1032C29D9CD
:1082B000CDB245EA05250F2C45EA054533D9A4F191
:1082C0001006360903F1200707EB061703F1100229
:1082D00042E9045542E902551032BA42F8D1721C03
:1082E00014F00C0F03EB021204F00F0613D0331F2F
:1082F00023F003030433134442F8045B9342FBD19D
:1083000006F003042CB1C9B21C4403F8011B9C42C3
:10831000FBD1F0BC704734461346002CF3D1F8E78C
:1083200014460346C2E71A462646E0E7032A70B41D
:1083300012D940EA0105AD0704460B4620D1194683
:10834000204653F8045B54F8046BAE4218D1043A4B
:10835000032A20461946F2D8541E72B103780A78CF
:108360009A4208BF241806D00CE010F8013F11F81B
:10837000012F934206D1A042F7D1002070BC704774
:10838000541EEBE7981A70BC704700BF53B94AB946
:10839000002908BF00281CBF4FF0FF314FF0FF300D
:1083A00000F074B9ADF1080C6DE904CE00F006F8E8
:1083B000DDF804E0DDE9022304B070472DE9F04761
:1083C000089E04468846002B40F085808A42154668
:1083D00048D9B2FA82F24AB1C2F1200701FA02F397
:1083E00020FA07F7954047EA030894404FEA154EF4
:1083F000230CB8FBFEF71FFA85FC0EFB178843EA37
:10840000084307FB0CF1994209D9EB1807F1FF303B
:1084100080F0E380994240F2E080023F2B445B1AF7
:10842000A4B2B3FBFEF00EFB103344EA034400FB9E
:108430000CFCA44509D92C1900F1FF3380F0CB8046
:10844000A44540F2C88002382C4440EA0740A4EB1F
:108450000C0400271EB1D4400023C6E9004339466E
:10846000BDE8F087002A53D0B2FA82F2002A40F029
:10847000B680491B4FEA154E1FFA85F80127B1FB5C
:10848000FEFC230C0EFB1C1143EA014308FB0CF11C
:10849000994207D9EB180CF1FF3002D2994200F251
:1084A000EC808446591AA3B2B1FBFEF00EFB101407
:1084B00043EA044408FB00F8A04507D92C1900F151
:1084C000FF3302D2A04500F2DC801846A4EB08047A
:1084D00040EA0C40BEE78B4208D9002E78D0002736
:1084E000C6E9000138463946BDE8F087B3FA83F79C
:1084F0007FB98B4202D3824200F2BD80841A61EBC5
:10850000030301209846002EA9D0C6E90048A6E73B
:10851000FFDEC7F12005BB4022FA05FC4CEA030C44
:1085200001FA07F420FA05F821FA05F34FEA1C4E88
:1085300048EA0404B3FBFEF9210C0EFB19331FFAC1
:108540008CF841EA034309FB08FA9A4502FA07F25C
:1085500000FA07F10BD91CEB030309F1FF3080F09F
:1085600088809A4540F28580A9F102096344A3EB13
:108570000A03A4B2B3FBFEF00EFB103344EA03443B
:1085800000FB08F8A04508D91CEB040400F1FF33F8
:108590006BD2A04569D90238644440EA0940A4EB93
:1085A0000804A0FB02894C45C6464B4654D351D023
:1085B000002E69D0B1EB0E0264EB030404FA05F55A
:1085C00022FA07F3FC401D43C6E90054002746E7A2
:1085D0003746304643E7184637E707461FE7C2F1FC
:1085E000200320FA03F7954001FA02F021FA03F381
:1085F0004FEA154E3843010CB3FBFEF71FFA85F81E
:108600000EFB173341EA034107FB08F38B4204FAE0
:1086100002F407D9691807F1FF3C28D28B4226D90A
:10862000023F2944CB1A81B2B3FBFEF00EFB10339C
:1086300041EA034100FB08F38B4207D9691800F1B6
:10864000FF3C10D28B420ED902382944C91A40EAA5
:10865000074714E74145ABD2B8EB020E69EB0C02B9
:1086600001381346A4E76046F0E7184695E76746E9
:10867000D8E781467BE7384645E7ACF1020C2B444E
:1086800010E702382C4421E73746E8E6704700BF80
:1086900010B50A4900F00704C00800EB40000022B2
:1086A000014410468B5CE34003F001039340013228
:1086B0001843032AC0B2F5D110BD00BF56340020C4
:1086C00001F0070301229A40C9080A4B01EB41015E
:1086D00030B5D2B21944002411F8015F20FA04F336
:1086E00043F300036B40134001346B40032C0B70C9
:1086F000F2D130BD55340020114B30B503F11004D8
:10870000D96144601C698260022A046038BF022279
:1087100060600C4C186188186063002020610220A2
:10872000E060656A6D1A954203D301300D186563E8
:10873000F7E7022882BFDA6A42F00102DA6230BD4E
:10874000B0300020000C00400023037582680369EC
:108750001B6899689142FBD25A68036042601060BE
:108760005860704770B56FF00104002503689842A7
:1087700000D170BD1A680260996850601A699C61E6
:108780001D75126896688E42FBD251681A60596056
:108790000B605360EAE70368984207D01A680260EA
:1087A000506000229A611846FFF7CEBF70474B68B1
:1087B00043608B688360CB68C3600B6943614B691E
:1087C00003628B6943620B6803607047024AD36897
:1087D00043F0C003D36070470010014000EB8103F9
:1087E00070B5DD68436D6C69266826614A014EBB31
:1087F0001A444FF40020C2F810092A6802F003025C
:10880000012A0AB20ED1D3F8080803EB421410F47F
:10881000807FD4F8000914BF40F0805040F0005031
:10882000C4F8000903EB4212D2F8000940F00440FA
:10883000C2F80009D3F8340801228A400243C3F881
:10884000342870BD19B9402E84BF402020602068B4
:108850002E8A8419013CB4FBF6F440EAC44040F08F
:1088600000501A44C7E700EB810330B5DD68AA6900
:108870001368136119B9402B84BF402313606B8ABE
:108880001468426D1C44013CB4FBF3F463430333AE
:1088900023F0030302EB411043EAC44343F0C04317
:1088A000C0F8103B2B6803F00303012B09B20ED173
:1088B000D2F8083802EB411013F4807FD0F8003B67
:1088C00014BF43F0805343F00053C0F8003B02EB69
:1088D0004112D2F8003B43F00443C2F8003B30BDE4
:1088E000836D70B5446D9E6800214FF0FF354A01DD
:1088F000A3180131D3F800090028BEBFD3F800093E
:1089000040F08040C3F80009D3F8000B0028BEBF38
:10891000D3F8000B40F08040C3F8000BA3188E4240
:10892000C3F80859C3F8085BE1D24FF00113C4F84B
:108930001C3870BDF0B54FF00F0C02F00305002499
:10894000520901260327CB0732D5436806FA04FEF5
:1089500023EA0E0343606300D0F808E007FA03F34C
:10896000DB430EEA030EC0F808E0D0F80CE003EA9F
:108970000E0E4EEA020EC0F80CE0D0F800E003EA5A
:108980000E032B43036004F00703072C4FEA830315
:1089900094BFD0F820E0D0F824E00CFA03F36FEA9B
:1089A000030395BF03EA0E0303EA0E030362436267
:1089B000490803D09200AD000134C4E7F0BDF0B423
:1089C00000EB81040789E468012564698D403D431B
:1089D000058123600023A2606360E360F0BCFFF7C1
:1089E000FDBE90F83420152A38B5044617D8012367
:1089F000934040F6416213421ED113F480150FD10B
:108A00009B020CD50B2380F83430302383F311887C
:108A10002B462A462946FFF7D2FF85F3118838BD39
:108A2000C3689B695B68002BF9D1036C03B198475D
:108A3000002384F83430F2E7436DD3F8002942F480
:108A40000012C3F80029D3F8002B42F40012C3F837
:108A5000002B43681B680BB1062198470623E8E703
:108A6000F0B400EB81044789E4680125A4698D40D6
:108A70003D43458123600023A2606360E360F0BC56
:108A8000FFF7F1BE38B590F834300446152B39D8CD
:108A9000DFE803F03E38383838383E38380B2939AB
:108AA00038383838383838383E3E90F84B1090F81F
:108AB0004A20C36B42EA0122934214D2C268128A4E
:108AC000B3FBF2F502FB15356DB9302383F3118842
:108AD0002B462A462946FFF772FF85F311880A23A1
:108AE00084F834300EE0142384F83430302383F3D8
:108AF000118800231A4619462046FFF7B1FF0023CC
:108B000083F3118838BD036C03B198470023E7E76E
:108B1000436DD3F8002942F40012C3F80029D3F8BA
:108B2000002B42F40012C3F8002B43681B680BB102
:108B3000062198470623D3E7002070470369196090
:108B4000C268013AC260C2691344826903619342F8
:108B500024BF436A036100238362036B03B1184798
:108B60007047436902699A4201D1C26822B9184626
:108B700050F8043B0B60704700207047C368C2691F
:108B8000013BC3604369134482694361934224BF3C
:108B9000436A436100238362036B03B11847704744
:108BA000302383F31188104B5B6813F4006317D0F4
:108BB000F1EE103AEFF30983683B4FF08072DA610F
:108BC0000A4AD2681A6683F30988094A1168D2688A
:108BD0008968926891428CBF064A074A9A61704739
:108BE00083F31188704700BF00ED00E030EF00E034
:108BF000B03000204F81000852810008F8B50468A9
:108C000006460D460027B44200D1F8BDE3682B4369
:108C1000E36015B123691D420AD06068A368C26988
:108C20001343027DC3610A2A04D18269134207D12A
:108C30002468E8E70B2AFBD1826932EA0303F7D103
:108C40008761FFF781FDF3E703682BB10022026023
:108C500099611846FFF778BD70470000F8B52A4CB7
:108C6000666D06EB40130546D3F8087BC3F8087B16
:108C700038070AD5D6F81438190706D504EB85034A
:108C80002946DB6820465B689847FA0720D5D6F866
:108C90001438DB071CD5AE1C04EB86035968C5B934
:108CA0008B69488A5F68B7FBF0F200FB127282B9E9
:108CB00018681A6990420CD2121AC3E900253023B1
:108CC00083F3118810482946FFF7CDFD85F31188FD
:108CD000F8BD012303FA05F2638923EA02036381E5
:108CE000CB6813B1294608489847302383F311888D
:108CF00004EB86046368986941680C30FFF7A4FFB1
:108D0000002383F31188E3E7240F00202DE9F843C3
:108D10003F4DD5F85480460108EB06030446D3F8CE
:108D20000899C3F8089919F0010F19D0D8F810382C
:108D3000DB0715D5871C05EB870359684B69186855
:108D40001A6990422AD2121A00271A605F603023F3
:108D500083F3118821462846FFF740FD87F31188E9
:108D600019F0800F18D0D8F834380120A040034201
:108D700012D005EB84036D6DDF6801347B6905EB70
:108D800004342E4459681A68914222D3D5F83438F5
:108D900023EA0000C5F83408BDE8F883012303FA8C
:108DA00004F22B8923EA02032B818B6813B121463D
:108DB00028469847302383F3118805EB8707002165
:108DC0007B6858690C30FFF73FFF002383F311885D
:108DD000C6E7521A398A8A4228BF0A46D6F81819B5
:108DE00089B2B2EB810FD7D89968A1F1040E5EF871
:108DF00004CFC4F800C0A1EB0E0C9444BCF1040FE6
:108E0000F5D81144996059680A445A60BAE700BF1E
:108E1000240F0020FEE708B5302383F311880A7D74
:108E20000023052A06D8DFE802F00C050503130F1E
:108E30008A6913604FF0FF338B610846FFF784FCAB
:108E4000002383F3118808BD8A6993680133936016
:108E50004A680B6813605A60ECE7000010B50229FD
:108E60000A4C38BF0221022342186263626A101A58
:108E7000814203D8013319461046F5E7022B81BF22
:108E8000034AD36A43F00103D36210BD000C0040D3
:108E9000B0300020174A1369984230B40ED00368EE
:108EA000416884680B605960996821449960002387
:108EB00003604FF0FF33936130BC70471346016885
:108EC00043F8101F4B600021016014690A4D9C4259
:108ED00001D1E960F0E78168A3680B44A360686A88
:108EE000D169421A9342E7D9091A194430BCFFF7F5
:108EF000B5BF00BFB0300020000C004010B50368C3
:108F00009C68A2420CD85C688A600B604C6021604F
:108F1000596099688A1A9A604FF0FF33836010BDD8
:108F2000121B1B68ECE70000F8B5114B114C5D6A91
:108F30002346074653F8106F9E420A4604D129463D
:108F4000BDE8F840FFF7D8BBE369EB1ACB1838BF90
:108F50001C46B36828BF0C46A34202D92846FFF737
:108F60007DFF224639460448BDE8F840FFF7C6BFFA
:108F7000000C0040B0300020C030002070B5094C1B
:108F8000236805460E4613B12046FFF783FF064BC4
:108F9000E36000232661636129460248BDE8704012
:108FA000FFF7C2BFE433002029920008034B596841
:108FB0005A68521A9042FBD8704700BF001000E078
:108FC00070B52C4D2B78012B50D12B4B6C6D5A6BFF
:108FD00042F080025A635A6D42F080025A655A6D1F
:108FE0005A6942F080025A615A6922F080025A613D
:108FF0005B69224BE02283F843230822C3F88821CF
:109000009A601F4BE3601F4BC4F800380023C4F87C
:10901000003EC02323604FF43413A3632369002B65
:10902000FCDA012323610C20FFF7C0FF2369DB0773
:10903000FCD41220FFF7BAFF2369002BFCDA0026CC
:10904000A6600C48FFF74CFC6B68C4F81068DB683E
:10905000C4F81468C4F81C684BB90B4BA3614FF0FB
:10906000FF336361A36843F00103A36070BD074B46
:10907000F4E700BF240F00200038024000E100E0C8
:109080004014004003002002003C30C0083C30C0C7
:10909000890141F02001016103699B06FCD4122083
:1090A000FFF784BF7047704700EB81032DE9F34160
:1090B0009C6905460E465CB3302383F3118805EBAB
:1090C00086070821201DFFF799FDFB685B691B6877
:1090D00004F1440873B1236D226E01332365A36D3F
:1090E0001344E26DA365934224BFA36EA36540467B
:1090F000FFF751FB01A94046FFF733FD024650B18F
:10910000019B31462846FFF75AFC002383F3118860
:1091100002B0BDE8F081FB685A691268002AF4D0F9
:109120001B8A013B1342F0D1E36F1B7E002BECD175
:1091300005F14402E5E713B5446BE36F1A68117853
:10914000042915D1217A022912D119791289012312
:109150008B4013420CD101A904F14400FFF701FD3B
:10916000024628B1E46F019B21792068FFF727FCB4
:1091700002B010BD38B5C36F1C682278042A18D11C
:10918000027A022A15D159796289012303FA01F57D
:1091900015420ED1C269056AAA4201D1856945B955
:1091A000043206D0836A2046043BFFF759FC0020B6
:1091B00038BD0120FCE7093110B550F821402CB32F
:1091C000302383F3118804216018FFF717FDE26F45
:1091D0001368527903EB820304F10C00DB689B698E
:1091E0005A68E3691A60A2690132A261A26A134453
:1091F000626AE361934224BF236BE361FFF7CBFA1A
:109200002046FFF7B7FF002383F3118810BD406BA2
:10921000FFF7B0BF7047704770477047014B187831
:10922000704700BFFC33002070B530230E4683F337
:1092300011880B78042B03D0002383F3118870BDB1
:10924000134C2278002AF7D0124B1B78002BF3D056
:109250000B899B0705D408230F4A01213046FFF7ED
:10926000AEFB0E4B247840F2E730A4FB03452018F8
:109270004FF000014FF47A724FF0000345EB01010B
:10928000FFF784F831468000FFF778FED4E700BF8F
:10929000E03300204C0D0020FD330020A0860100AB
:1092A000F8B590F8443003F07F02212A04466AD1D1
:1092B00013F0800523D0002D65D090F845000228DA
:1092C00017D003280BD001285DD194F84830002B2B
:1092D00050D1464AA2630822E263236408E0B4F84E
:1092E0004820002A4FD1424BA3630120E06322644F
:1092F000F8BD404BA3630120E0630023EDE790F845
:1093000045200A2A3AD00B2A0DD0092A3BD190F8E1
:109310004820002A37D1384B83630223C363374B7D
:1093200023640120E4E7B0F848501DBB90F84630B4
:109330002F4A003318BF012313702E4B1A78CAB17D
:10934000302282F311881E782D4B40F2E730A6FBC5
:10935000036730184FF000014FF47A724FF00003AA
:1093600047EB0101FFF712F821468000FFF706FEE8
:1093700085F311880023A363E363D1E71D4B90F8C5
:1093800047201A70DBE7B4F8441040F28162914242
:1093900016D194F84920616894F848304D6894F8E3
:1093A000471043EA0223204694F84620A84708B90C
:1093B00000209DE74368A3630368E3630023AFE7EE
:1093C000104A92F89220002AF2D003F06003202B7A
:1093D000EED194F84530202BEAD3212B02D9222B51
:1093E000C8D0E5E7084BA3630723E6E7FD33002079
:1093F0004C0D0020E0330020543400200D94000870
:10940000A0860100180C00204D0D002090F84A1095
:10941000054B02291A7804D1012A01D0062A02D16B
:109420005A78024B1A70704754340020FC330020E5
:1094300010B5084A084C117824784B1C03F00F0330
:109440009C421DBF054C13706054002018BF0120C2
:1094500010BD00BFC8330020C9330020B83300203E
:1094600042EA012109B2C1F30720032811D006D82E
:10947000012823D0022824D000231A4611E02128F5
:1094800016D02228F8D113B3012BF5D10346114A87
:1094900007E0C9B20229EFD80F4B53F821200F4B38
:1094A0005B5C0F48002A4260036008BF10467047AB
:1094B00053B1012BE0D109230A4AF2E712230A4AE9
:1094C000EFE74223094AECE70923094AE9E7402389
:1094D000084AE6E73ADD000850DC00085CDC0008DA
:1094E000043300209BDC0008B2DC000870DC0008BC
:1094F00082DC0008C4DC0008BFF34F8F0549064B2F
:10950000CA6802F4E0621343CB60BFF34F8F00BF21
:10951000FDE700BF00ED00E00400FA05D0B5302300
:1095200083F31188134B144C144A596A236810684A
:10953000C91A884212480AD9A3F58333E03B236055
:109540000468104B01F583312344E031036011605E
:109550000468002383F311880B4E0C4A4FF47A7091
:109560000027E0FB0167002330463946FEF70EFF77
:109570002044D0BD000C0040883400201834002066
:109580003C34002088598F029F860100A08601008C
:1095900030B54FF0FF33851C002215F8014B8C428B
:1095A0000ED0B3F1FF3F02D1002C08BF13460132A9
:1095B000D4B2062C62B2F0D15A1C01D0184481708A
:1095C00030BD0000024B186808B1036818477047A7
:1095D00090330020024A136943F00043136170473F
:1095E000003C0240044B1A69002ABFBF034A5A607C
:1095F00002F188325A607047003C024023016745FF
:10960000094BDA68D2030AD4DA6812F0E00F08D105
:10961000DB6813F0100F0CBF0520032070470120FA
:1096200070470220704700BF003C024037B501463A
:10963000FFF7E6FF0024FF2501280FD111B906200E
:1096400003B030BD01940195019B1BB9FFF7D8FF12
:109650000139F1E7019B013B0193F5E7002908BFC0
:109660000620EDE7144B00F178429A4270B50546AA
:109670000E461ED81F20FFF7D9FF052818D10F4C22
:10968000236923F440732361236943F480732361C6
:10969000236943F0010323611F202E80FFF7C6FFDB
:1096A00006281EBF236923F001032361F123E36031
:1096B00070BD0720FCE700BFFEFF0700003C024032
:1096C00010B540F6FF70FFF7B1FF052818D10F4C19
:1096D000236923F0F8032361236943F00A0323611C
:1096E000236943F48033236140F6FF70FFF79EFF48
:1096F00006281EBF236923F0FA032361F123E360E8
:10970000FFF768FF024B034A1A6010BD003C02409D
:1097100098330020006000082DE9F04FCC0710D5E9
:109720008BB2B3F5005F01F101043CBF1946244B35
:1097300000F1010534BFCB5CFF230370013A2846DA
:10974000214655081E4E6F0000F0010E841C01EBEF
:10975000070C41F6FE7806F10109614510D16FF062
:10976000010303FB0525384445B18BB2B3F5005F17
:109770003BBF1946124BFF23CB5C0370BDE8F08F53
:109780008BB2434512D89A46DB0745BF1AF809B099
:109790001AF806303AF8063043EA0B23BEF1000F00
:1097A00007D124F8023C02310234D6E74FF6FF73AA
:1097B000F4E704F8023C1B0A04F8013CF3E700BF9D
:1097C000840F002008B54FF6FE73034003F10060DC
:1097D00000F580404FF6FF7102888A420CD108499B
:1097E000595AC94389B2914208D0FFF7FBFEFFF7EF
:1097F00039FFFFF7EFFE08BD0020FCE70520FAE780
:10980000840F0020F8B5FFF7EDFEFFF759FFFFF7D3
:10981000E9FE0B4E0B4C0C4F052536F8021B39B1F7
:10982000C94389B22046FFF71DFF052818BF05462A
:109830000234BC42F1D1FFF7CDFE2846F8BD00BF8F
:10984000840F0020004000080060000838B50C4D6F
:109850000C4B2C689C4203D9BDE83840FFF7D2BFBF
:10986000FFF7C0FE084BC15C41EA0021A31C89B28E
:1098700020462B60FFF7F6FEFFF7ACFE38BD00BFB9
:1098800098330020FF7F0008840F00202DE9F84363
:109890001E4BDFF88080C65AD8F80050012E9ABFC0
:1098A0001B4C02230423C3F1006394BF44EA4634F3
:1098B000803803F5004392BFA4B280B24FF46044F5
:1098C0009D4203D9BDE8F843FFF79CBF44EA50012D
:1098D00005F10209FFF786FE2846C8F80090FFF759
:1098E000C1FEB4F5604F07460AD1F143043589B291
:1098F0004846C8F80050FFF7B5FE052818BF0746D0
:10990000FFF768FE3846BDE8F88300BF840F0020EB
:109910000080FFFF98330020B0F5005F10B50446CB
:1099200014D20C4BC25C8A4212D0C154FFF74AFFDA
:1099300068B97F2C04D82046BDE81040FFF786BFE9
:1099400024F00100BDE81040FFF7A0BF072010BDC4
:109950000020FCE7840F002011F0010F2DE9F74FE4
:1099600005468B46174608D04C1C1FFA8BF015F89D
:10997000011BFFF7D1FF013FA34605F001034FEAAA
:10998000570800930BEB4803AE1C0193019B9B45CA
:109990000ED16FF0010202FB0877002F50D015F8AE
:1099A00018101FFA8BF003B0BDE8F04FFFF7B4BFFB
:1099B000009BBBB936F8029C1FFA8BF4B4F5005F2C
:1099C0000CD2E30715D55FFA89F12046FFF7A4FF13
:1099D000601C4FEA192180B2FFF79EFF0BF1020BCA
:1099E0000236D3E716F8011C16F8022C42EA0129C8
:1099F000E2E71FFA8BF0144B30F803A0D145EDD00D
:109A000020F803902046FFF7DDFE0028E6D17F2CEA
:109A100012D85FFA8AF05FFA89FC604502D02046CE
:109A2000FFF714FF4FEA1922B2EB1A2FD6D0601CB1
:109A300080B2FFF70BFFD1E72046FFF727FFCDE706
:109A400003B0BDE8F08F00BF840F002037B50422BB
:109A50000146044600250DEB02000195FFF75CFE70
:109A6000019B33B1042221460DEB02000195FFF763
:109A700073FF03B030BD00001F4B204A2048F0B5F3
:109A80001D4632F8021BC943824223F8021BF8D15B
:109A90001C4C4FF6FF7743F6FE761388BB4206D088
:109AA000180409D4190A6B540232A242F5D9164B94
:109AB0004FF400501A60F0BD03F4C041B1F5C04F3F
:109AC0000FD1901CA04215D85188C94389B279B1F1
:109AD00006EA430380330246B3F5005FE4D2E9525D
:109AE000E2E75904E0D4C3F3403106EA4303F3E765
:109AF0000246D9E70246DAE7840F0020004000085A
:109B000000600008FF7F00089833002037B500236D
:109B10000D460446014602220DF10600ADF806305E
:109B2000FFF7FAFDBDF806309D4207D0022221461C
:109B30000DF10600ADF80650FFF70EFF03B030BD83
:109B400007B50023014601220DF107008DF807300B
:109B5000FFF7E2FD9DF8070003B05DF804FB52003B
:109B600038B502EB0111E02505FB001505F12700D2
:109B7000FFF7E6FF000284B205F12800FFF7E0FFDF
:109B8000204380B238BD82B00328ADF804100AD853
:109B90009DF805100D2906D89DF80420072A02D843
:109BA00002B0FFF7DCBF002002B0704708B52620E6
:109BB000FFF7C6FF08BD08B52320FFF7C1FF222825
:109BC00001D0002008BD2420FFF7BAFF1028F8D1EB
:109BD0002520FFF7B5FFA0F1140358425841F1E7E3
:109BE00037B50C460546FFF7ABFFA04207D0012270
:109BF00029460DF107008DF80740FFF7ADFE03B0D1
:109C000030BD10B540F2A734204600210134FFF7E3
:109C1000E7FFB4F5005FF7D110BD032838B51D4646
:109C200015D80D2913D8072A11D8520002EB0112BA
:109C3000E02414FB0024190A04F12700FFF7D0FFE9
:109C4000E9B204F12800BDE83840FFF7C9BF38BDCC
:109C50002DE9F047DFF848800024474600265FFAE8
:109C600084F912E0012CD8BF37F81530EAB2C8BF2A
:109C70000123514648460135FFF7CFFF082DF1D1AA
:109C800001360E2E07F1100703D000255FFA86FA81
:109C9000E8E70134042C08F1E008DED1BDE8F087E4
:109CA000ECDF000810B5041E14BF2221FF21232081
:109CB000FFF796FF002C14BF1021FF212420FFF78F
:109CC0008FFF002C14BF1421FF212520BDE8104078
:109CD000FFF786BF08B50020FFF7E4FF262000212C
:109CE000FFF77EFFFFF7B4FFFFF78BFF0120BDE812
:109CF0000840FFF7D7BF0020704708B5302383F333
:109D00001188012100F00F039940202220F00F005C
:109D1000FEF710FE002383F3118808BD0020704772
:109D2000294B1A78510707D500F01801082927D1C7
:109D300000F0F70040F00400110707D500F018010B
:109D4000182926D100F0E70040F014005B78D9070D
:109D500007D500F01801082924D100F0F70040F0E1
:109D60000100990707D500F01803182B23D100F044
:109D7000E70040F01100D30648BF00F0E70070474D
:109D800000F01401042904BF00F0FB0040F00800BB
:109D9000D2E700F01401142904BF00F0EB0040F0FA
:109DA0001800D3E700F01101012904BF00F0FE0004
:109DB00040F00800D5E700F01103112B04BF00F0BC
:109DC000EE0040F01800D6E706340020822810B5D7
:109DD000044625D02ED8312800F086801CD82928AA
:109DE00077D02A2800F08780B4F5A64F80F09C80B9
:109DF000B4F5A44F80F0E180B4F5005F80F0898075
:109E0000B4F5807F80F0D180A42C7BD8042C4DD277
:109E1000012C18BF002449E0352853D03928E3D15C
:109E20007C4B1A78920740F0EF805B781B07DBD5FC
:109E300029243BE0E32829D008D8E02816D0E228DE
:109E4000D2D1744B1B7813F0040F17E0E62829D009
:109E5000E7282DD0E428C7D16E4B5A78910725D535
:109E60001B7813F0100F08BFE7240CE0694A137841
:109E7000D80700F1C580527812F0010F16D013F008
:109E8000100F08BFE32418BF00240FE0614A1378C5
:109E9000590700F1B7805278D00700F1B58013F070
:109EA000100FF0E75B4B1B781A07DAD4204610BD81
:109EB000584A1378180700F1A98052789107EED517
:109EC000E424F3E7534B1B7813F0200F18BF292429
:109ED000ECE7504B1A78920600F19A805B7813F009
:109EE000080F18BF3924E1E74A4B1B7813F0400FE5
:109EF00018BF2A24DAE7474B1B7813F0400F18BF2E
:109F00003124D3E7A4F1E1039BB2072B28BF00243F
:109F1000CCE7B4F5A24F4AD2B4F5A04F3BD2B4F58A
:109F2000804F33D20024C1E7B4F5AC4F10D2B4F562
:109F3000AA4FE0B251D2B4F5A84F49D28308012408
:109F400000F00300844044EA431444F40A442CE043
:109F5000B4F5B44F0AD2B4F5B24F46D2B4F5B04F0F
:109F6000E0D34AF2F00040EA04241EE0A4F5C04326
:109F70009BB2B3F5005FD5D2C4F30420FFF7D0FE47
:109F8000000200F4F850E4B204432BE0C4F30B04E5
:109F900044F420448AE7E4B2A30804F00300012457
:109FA000844044EA431444F40D44A4B27EE7E4B28E
:109FB0004AF2F10343EA042478E7E4B2A30804F088
:109FC00003000124844044EA431444F40C44ECE7C5
:109FD0004AF2F40444EA002468E7FFF7A1FE040211
:109FE00004F4F85444F4005460E704F00F00FFF761
:109FF00097FEC4F3031440EA042444F41044D4E765
:10A00000392453E7E22451E7E0244FE7E6244DE703
:10A0100035244BE7063400200A4A002330B502EB12
:10A0200000120124184612F813503DB141FA03F50D
:10A03000ED0742BF04FA03F52843C0B20133082BF1
:10A04000F1D130BDECDF000810B50420FFF778FD3A
:10A0500004462220FFF774FD44EA002080B210BDC0
:10A0600010B5FFF7BFFAFFF72BFBFFF705FD4FF623
:10A07000E8610020FFF74AFD00210220FFF7B0FD54
:10A08000002103200024FFF7ABFD1D4B21460420D7
:10A090001C70FFF7A5FD04212220FFF7A1FD21463A
:10A0A0000520FFF79DFD21460620FFF799FDFF21C2
:10A0B0000720FFF795FD0820FFF7C8FC21460D207B
:10A0C000FFF78EFD1820FFF7C1FC21461720FFF790
:10A0D00087FD1C20FFF7BAFC21462020FFF716FD64
:10A0E0001820FFF7B3FC2046FFF7DCFDFFF7F2FD79
:10A0F0000F20FFF7ABFC1320BDE81040FFF7A6BC14
:10A1000001330020024B1A780AB100221A707047FE
:10A1100041340020024A137823EA0000107070478F
:10A1200050340020054B064A1B7812789A4200D121
:10A130007047013303F00703F8E700BFCD34002078
:10A14000CC3400207FB5114BADF804001E78104BC5
:10A150001B7807241E4346FA04F3DB07E5B206D456
:10A1600014F1FF34F7D20025284604B070BDBDF8C5
:10A170000430ADF80C3003992846FFF704FDFFF7D3
:10A1800025FE80B20128EBD0EEE700BF1C34002092
:10A19000013300201FB5ADF804000198FFF7D2FF8E
:10A1A000BDF80430ADF80C300399FFF7ECFC05B0B6
:10A1B0005DF804EBFFF70ABE37B584880546014613
:10A1C000022201A8FDF7C8FFD4B1BDF804204FF664
:10A1D000FF739A4214D02888FFF7DCFFC0F30333E3
:10A1E0000E3303F00F03092BC2B209D8012000FA85
:10A1F00003F340F203310B4204D113F010030FD1EB
:10A20000002006E0F02A04D005D8E72A8CBF002001
:10A21000012003B030BDF42A14BF00200120F8E76C
:10A22000E72AF6D9F12AF7E7084BC0B210F0010F80
:10A230004FF0080214BF1A835A8310F0020F4FF038
:10A24000100214BF1A835A83012070470004024091
:10A2500003091CBF1846042382081EBF02331046A0
:10A26000DBB242081CBF0133DBB21846704773B53E
:10A2700002AB03E903009DF802309DF800509DF801
:10A2800001609BB192B10098FFF75CFF0D2E044670
:10A2900005D8072D03D805EBC601FEF711FA009982
:10A2A000204602B0BDE87040FFF76DBC0D2E07D808
:10A2B000072D05D805EBC600FEF7EAF90446EEE7E0
:10A2C0000024ECE72DE9F0470EB200EB860881464A
:10A2D0005069C8F80C200D46144618B1142200210C
:10A2E000FDF7D4FFA06918B114220021FDF7CEFFBD
:10A2F000D8F80C2039491368D9F8544003F0030307
:10A30000002051F823A069016318C3F8100B05F170
:10A310001003012098409369002B3BD0578A05F128
:10A3200058035B0147EA0A07E750D4F81C38184382
:10A3300021440023C4F81C08C1F8103953690127CF
:10A34000691EAF409BB3138A928B9B08012A88BF7A
:10A350005343D9F85C20981842EA034301F14002C4
:10A3600004EB8202C9F85C00294653602046FEF7E0
:10A370008FFED8F80C301B8A43EA855348356D01AF
:10A3800043EA0A036351D4F81C381F43C4F81C780D
:10A39000BDE8F08704EB4617D7F8003B23F40043F1
:10A3A000C7F8003BD4F81C3823EA0000C0E705F1E9
:10A3B0003F0304EB83030A4A5A6004EB461629461E
:10A3C0002046FEF765FED6F8003923F40043C6F8B0
:10A3D0000039D4F81C3823EA0707D7E760DC000807
:10A3E0000004000238B50546052970D8DFE801F001
:10A3F000536F03535370302383F311883D4C3E4A0F
:10A400000121FFF75FFF94F8901004F14402284601
:10A41000FFF758FF94F8921021B104F16802284622
:10A42000FFF750FF0025D4F8E0303448C4F8D030AE
:10A43000C4F8CC30C4F8C850C4F8E450C4F8E850AC
:10A44000FEF790F9D4F81431C4F800312C48D4F850
:10A450001831C4F80831C4F8043184F8C450C4F881
:10A460001C51C4F82051FEF77DF90121254884F8DC
:10A47000FC50FEF7C3FB2448FEF77CFE85F31188F1
:10A48000224B1B7813B10520FEF7D2FF0220BDE856
:10A490003840FEF7CDBF0846FEF7CAFF302383F3EE
:10A4A0001188144C022104F1B400FEF7A7FB01252A
:10A4B00004F1BC0084F8C450FEF754F904F1F40030
:10A4C00084F8FC50FEF74EF9002383F3118838BD61
:10A4D000302383F31188074C012104F1B400FEF707
:10A4E0008DFB002384F8C43084F8FC3083F311889A
:10A4F0000520CCE7180C0020C8DF0008D40C002091
:10A500000C0D0020CC0C0020C80C002013340020BF
:10A5100073B5302383F311882C4CD4F82C311A688E
:10A52000117804294CD194F8B810022948D119792E
:10A53000128901238B40134242D1D4F80431D4F85C
:10A54000082193423CD1D4F80021002A38D0D4F815
:10A550001C21002A34D0043AD21A31D01A60D4F81F
:10A5600000211B48013AC4F80021D4F810211344FB
:10A57000D4F80C21C4F80431934224BFD4F8183124
:10A58000C4F80431002601A9C4F81C61FEF7E9FAF9
:10A59000D4F82C311A7E054652B101981A69314619
:10A5A000121A2844FDF772FED4F82C311B6901936E
:10A5B000D4F82C01019B017900682A46FEF7FFF9C7
:10A5C000002383F3118802B070BD00BF180C002077
:10A5D0000C0D0020F8B590F83430044613B1002378
:10A5E00080F8343004EB81010822CB6804F1440088
:10A5F000196AFDF7B1FD63689B68DBB994F84430D4
:10A6000013F060053ED0636DD3F8002942F40012C8
:10A61000C3F80029D3F8002B42F40012C3F8002B32
:10A6200063681B6813B1062120469847062384F807
:10A630003430F8BD204698470028DFD094F84B20EE
:10A6400094F84A3043EA0223E26B9A4288BFE363FC
:10A6500094F94430E56B002B4FF0300380F24781D2
:10A66000002D00F03681092284F8342083F311880C
:10A670000021E36BA26B2046FEF7A1F9002383F3D0
:10A680001188D6E794F8452003F07F0343EA0223BC
:10A6900040F20232934200F0008125D8022B00F0F4
:10A6A000C88009D8002B57D0012BACD19C4BA36399
:10A6B0000223E363002354E0B3F5817F00F0CD80F3
:10A6C000B3F5407F4FD0B3F5807F9CD194F84630EE
:10A6D000012B98D1B4F84C3023F00203A4F84C308D
:10A6E000A563E5632564A9E740F20162934223D89C
:10A6F000B3F5C06F41D2B3F5A06F84D1B4F8443044
:10A70000B3F5A06F14D194F84610626D84F84E1022
:10A71000D2F8003823F4FE6343EA0113C2F800388C
:10A7200063681B6813B101212046984703232370F7
:10A730000023A363E36314E0B3F5106F33D040F656
:10A7400002429342B2D0B3F5006F7FF45CAF04F1E4
:10A750004F03A363012324E004F14C02A26302220D
:10A76000E26323646AE794F84630012B7FF44BAF31
:10A77000B4F84C3043F00203B0E794F84920616824
:10A7800094F848304E6894F8471043EA0223204674
:10A7900094F84620B04700283FF435AF4368A363E0
:10A7A0000368E3639EE72378042B32D1302383F3DD
:10A7B0001188A36803F00113A36004F1100604F1EB
:10A7C0001C0756F8043B7BB1586920B16FF00101BA
:10A7D0000C30FEF739FA56F8043C986920B16FF056
:10A7E00001010C30FEF730FAB74246F8045CE8D1BC
:10A7F000A36D1B68E3652046FEF772F885F31188A8
:10A800000321636884F84F5021701B680BB1204608
:10A81000984794F84630002B8AD084F84F300423B0
:10A82000237063681B68002B82D002212046984762
:10A830007EE794F84810626D080601F00F030AD510
:10A8400048335B01D3581A047FF5DDAE99024CBF43
:10A85000344B354B2BE75833F3E794F84630002B55
:10A860007FF4D1AE94F8481011F00F023FF460AFBE
:10A87000636D12B211F0800F03EB421306D0D3F8D0
:10A88000002922F40012C3F8002951E7D3F8002B65
:10A8900022F40012C3F8002B4AE794F84630002B4C
:10A8A0007FF4B1AE94F8481011F00F023FF440AFBE
:10A8B000636D12B211F0800F03EB421304D0D3F892
:10A8C000002942F40012DEE7D3F8002B42F4001214
:10A8D000E0E7142284F8342083F311882B462A46BB
:10A8E00029462046FEF7BCF885F31188A1E65DB144
:10A8F000152284F8342083F311880021E36BA26BC6
:10A900002046FEF7ADF8B9E60B2284F8342083F335
:10A9100011882B462A4629462046FEF750F8E3E7E1
:10A92000C8E20008C4DF00081CDE0008054BD96837
:10A930000875186802681A60536001220275D860B1
:10A94000FDF7F0BBB030002030B50E4BDC684B1C7F
:10A9500087B0054612D00C4B03936846002305933D
:10A960000494FEF7E1FA2846FFF7E0FF009B13B1DD
:10A970006846FEF78FFAA06907B030BDFFF7D6FF33
:10A98000F9E700BFB0300020178E0008064BDB68E7
:10A9900039B1426818605A60136043600420FFF7C1
:10A9A000D3BF4FF0FF307047B03000202DE9F74F94
:10A9B00004460F4692460093D0F81CB04FF0300981
:10A9C00089F311881646DEB1A36860699E42236947
:10A9D0008CBFA5683546A3EB0008A84518D92A46C0
:10A9E0003946FDF7B9FB63692B446361A3685B1BC0
:10A9F000A3602DBB00992046FFF7C8FF0028E2D0D6
:10AA0000002383F31188AAEB060003B0BDE8F08FA2
:10AA100010D242463946FDF79FFBA5EB08031A46C4
:10AA200007EB0801E0680193FDF796FBE268019BE4
:10AA30001344DAE72A463946FDF78EFBE368D4E78C
:10AA4000BBF1000F01D02046D847002383F31188C3
:10AA5000761B2F4489F31188B5E73030FFF7A6BF86
:10AA60004FF0FF333030FFF7A1BFF8B504460E4674
:10AA70001746302383F31188A568A5B1A368013B6D
:10AA8000A36063695A1C62611E70236962699A42FD
:10AA900024BFE3686361E3690BB120469847002057
:10AAA00080F3118807E039462046FFF76FFF002842
:10AAB000E2DA85F31188F8BD3030FFF7D6BF4FF0EA
:10AAC000FF323030FFF7D1BF2DE9F74F04460F4674
:10AAD00092460093D0F81CB04FF0300989F31188EA
:10AAE0001646DEB1A368A1699E4223698CBFA568A2
:10AAF0003546A3EB0108A84518D92A463846FDF784
:10AB00002BFBA3692B44A361A3685B1BA3602DBB34
:10AB100000992046FFF73AFF0028E2D0002383F394
:10AB20001188AAEB060003B0BDE8F08F10D24246B0
:10AB30003846FDF711FBA5EB08031A46E1680193BF
:10AB400007EB0800FDF708FBE268019B1344DAE716
:10AB50002A463846FDF700FBE368D4E7BBF1000F57
:10AB600001D02046D847002383F31188761B2F4459
:10AB700089F31188B5E70C30FFF7A6BF4FF0FF331C
:10AB80000C30FFF7A1BF70B5302304460E4683F3A7
:10AB90001188A568A5B1A368A269013BA360531CF5
:10ABA000A36115782269934224BFE368A361E36936
:10ABB0000BB120469847002383F31188284607E00D
:10ABC00031462046FFF7E2FE0028E2DA85F31188DD
:10ABD00070BD0C30FFF7D7BF4FF0FF310C30FFF7DF
:10ABE000D2BF38B504460D46E3683BB123691A1D50
:10ABF000A262E2691344E362002007E0237A33B9DA
:10AC000029462046FFF7C2FE0028EDDA38BD6FF076
:10AC10000100FBE72DE9F84F04460F4691469A469E
:10AC20004FF0300888F311880025AB46A66A4EB96C
:10AC300051462046FFF7D5FF20B186F311882846FC
:10AC4000BDE8F88FA06AE66AA9EB0503361A9E42B2
:10AC500028BF1E46402E18D939464022FDF77CFAFF
:10AC6000A36A40334037A3624035A26AE36A9A423E
:10AC700004D3E16920460439FDF760FF8BF31188A6
:10AC80004D45DCD288F31188D0E739463246FDF7CE
:10AC900063FAA36A33443744A3623544E5E744309A
:10ACA000FFF7B8BF4FF0FF334430FFF7B3BF70B5C5
:10ACB000302304460E4683F31188856A35B9114660
:10ACC000FFF78FFF10B185F3118870BDA36A1E7066
:10ACD000A36AE26A01339342A36204D3E169204686
:10ACE0000439FDF72BFF002080F31188EDE7443095
:10ACF000FFF7DDBF4FF0FF324430FFF7D8BF38B564
:10AD000004460D46E3683BB16269131D1268A362F5
:10AD10001344E362002007E0237A33B92946204632
:10AD2000FFF734FE0028EDDA38BD6FF00100FBE7D5
:10AD30002DE9F84F04460F4691469A464FF03008E9
:10AD400088F311880025AB46A66A4EB951462046C5
:10AD5000FFF7D5FF20B186F311882846BDE8F88FAC
:10AD6000A16AE66AA9EB0503761A9E4228BF1E4631
:10AD7000402E16D938464022FDF7EEF9A36A40333B
:10AD80004037A3624035A26AE36A9A4202D3204662
:10AD9000FDF7F4FE8BF311884D45DED288F3118860
:10ADA000D2E738463246FDF7D7F9A36A3344374431
:10ADB000A3623544E7E70C30FFF7BABF4FF0FF332B
:10ADC0000C30FFF7B5BF70B53023044683F311880C
:10ADD000866A3EB9FFF793FF054618B186F31188DE
:10ADE000284670BDA36AE26A13F8015BA36293422E
:10ADF00002D32046FDF7C2FE002383F31188EFE75C
:10AE00000C30FFF7E0BF4FF0FF310C30FFF7DBBF36
:10AE100008B50146302383F311880820FFF794FD1D
:10AE2000002383F3118808BD38B50546302383F32A
:10AE30001188124C2378042B0DD123899B070ED443
:10AE40002A4601210D480823FDF7B9FD08222946AD
:10AE50000B48FDF781F9002383F3118838BD23697E
:10AE6000084A5B69D26843F80C2F03209361FFF70F
:10AE70005DFD2378042BE3D0EDE700BF240F002015
:10AE8000FD330020B03000202DE9FF470E220021C5
:10AE90006846FDF7FBF90025474F6E46A84657F870
:10AEA000041B481C50D0302383F311884FF0010A53
:10AEB00021F00F0901F00F010AFA01F42146524670
:10AEC0004846A4B2FDF736FDA9F81A4088F3118868
:10AED00000BF00BF00BF00BF00BF00BF00BF00BF7A
:10AEE00000BF00BF00BF00BF00BF00BF00BF00BF6A
:10AEF00000BF00BF00BF00BF00BF00242F48234693
:10AF000050F8041B4A1C4DD021F00F0201F00F0134
:10AF1000126922FA01F1CA0744D44FFA8AF20133C6
:10AF2000DBB222434FEA4A0A082BD4B25FFA8AFA0C
:10AF3000E6D157F8040C431C01D0FEF7DEFE40F6C4
:10AF4000D810FEF733F834700135EDB20E2D06F14E
:10AF50000106A4D12A46694619481A4CFDF7E6F9BC
:10AF600010B32A4669461648FDF7F6F80123237008
:10AF7000FEF7D4FA144B1860134B1D68FEF7CEFA97
:10AF8000401B042813D90E220D491048FDF7CEF9B5
:10AF900028B10E220A490D48FDF7DEF801200023F2
:10AFA000237005E00022BAE72378002BE4D10020CB
:10AFB00004B0BDE8F08700BF2CE20008CCDE00083A
:10AFC00042340020F8320020FC3200201D340020E2
:10AFD00010B5184B18491A78184B09781B781A4382
:10AFE000174B1A7059B10A4303F8022B07210022AC
:10AFF000013911F0FF0115D10AB1FFF783F80822DA
:10B0000010490F48FDF792F998B108220C490D48F4
:10B01000FDF7A2F80C4B1B685BB15B680848BDE804
:10B020001040184713F8010B0028E1D00132D2B2CA
:10B03000DEE710BD5034002041340020CE34002023
:10B04000842F00200B34002090330020024B00227C
:10B050001A70FFF7BDBF00BFCE340020084938B5D5
:10B060004FF400444C830546FFF7F2F8054B0128E6
:10B0700008BF0C831D70BDE83840FFF7E7BF00BF75
:10B08000000002401C340020054B187800F0060335
:10B09000062B0CBF40F0080000F0F700FFF7DEBF02
:10B0A0001C340020012303FA00F0034B1B7823EA31
:10B0B0000000FFF7D3BF00BF1C34002038B50B4C95
:10B0C00094F9003023EA000040B210F00705207028
:10B0D0000BD1DBB2834208D0054B5B785B0704D50C
:10B0E000C0F3C700FFF7DEFF257038BD40340020F5
:10B0F000063400200C4A5378C3F38001814210B516
:10B1000010D060F38203537014880420E1B2FEF77C
:10B1100067FD210A2220FEF763FD0220BDE81040F2
:10B12000FFF7CCBF10BD00BF06340020012303FA97
:10B1300000F0034B1B781843C0B2FFF78FBF00BF6E
:10B140001C34002008B5054B054800210622197063
:10B15000FDF79CF8BDE80840FFF778BF50340020A9
:10B16000862F002008B528B1FEF7D4FFBDE80840BF
:10B17000FFF72EBF08BD000028B1034B1A7810431B
:10B180001870FFF725BF70475034002010B5002815
:10B1900041D0031FDBB2A02B10D81F4A0623002189
:10B1A00012F8014B013BA04208BF02F8011C13F04A
:10B1B000FF03F5D1BDE81040FFF70ABF00F12003FF
:10B1C000DBB2072B08D8012300F0070003FA00F0D8
:10B1D000C0B2FEF79FFFEDE700F15B03DBB2022B8D
:10B1E0000BD80E4B1A88B2B1002018800C4B1B688C
:10B1F0008BB1DB68BDE8104018475830C0B2162844
:10B2000009D8084B1A8832B100201880044B1B68FB
:10B210000BB11B69EEE710BD862F0020143400200F
:10B22000903300200834002010B5044698B3031F63
:10B23000DBB2A02B20D8184A0023114611F8010BCD
:10B2400084420AD00133062BF8D121461348FEF779
:10B250009FF9BDE81040FFF7BBBE0623002112F89E
:10B26000010B013B844208BF02F8011C13F0FF03ED
:10B27000F5D1FFF7ADFEE8E700F12003DBB2072BC5
:10B2800009D8074B00F00704012000FA04F41878ED
:10B2900004431C70DDE710BD862F0020842F0020A2
:10B2A0005034002038B5392805460CBF50240024FE
:10B2B000FFF7BAFF24B92846BDE83840FFF766BF5C
:10B2C0006420013CFFF7A4FDA4B2F3E72DE9F041AF
:10B2D0001546827898460C46254B6AB11970FEF7E0
:10B2E0001DF9244B04F0070418800120A040C0B2CF
:10B2F000BDE8F041FFF740BF1E788E4230D11D4BB4
:10B300001F88FEF70BF9C01B80B2C72828D8AE42B1
:10B3100005F1200415D006F12003DBB2072B06D877
:10B3200006F007060120B040C0B2FFF71BFFE3B2F2
:10B33000072B06D805F0070301209840C0B2FFF79D
:10B340001BFF4046E4B2FFF7ADFF072C0DD805F018
:10B3500007050120A840C0B2BDE8F041FFF702BFD9
:10B3600004F007040120A040F5E7BDE8F08100BF2C
:10B3700051340020523400202DE9F04F858887B0E9
:10B3800004460146022203A8FCF7E6FE002D00F069
:10B390005385BDF80C204FF6FF739A4200F04C85A0
:10B3A00023886088A18843EA00400122FEF75FFFFE
:10B3B000A3780646002B00F0F684A0F5BE42123AB0
:10B3C00092B20F2A00F2C78441F6FF70FEF7B8FB75
:10B3D00008BB123EF5B240F2A73685BBDFF870A37A
:10B3E000ADF816503046FEF7ABFB0023751C8DF808
:10B3F00014008DF8153070B1431E022B2AD88DF839
:10B400001500012328468DF81430FEF799FB02360B
:10B410008DF81600F8B9C44B1B785D0700F00C8559
:10B42000A378002B00F00885C04B5B785C0740F1E7
:10B430000385022007B0BDE8F04FFFF73FBEB6F529
:10B44000005FE8D03046FEF77BFB08B9013DEDB266
:10B450000136C2E72E4605AD2B78002BC2D0012B5A
:10B4600030D16B78A878012B03D10235FFF71AFF92
:10B4700004E0022B04D10235FFF7D6FE0135EBE7DD
:10B48000032B03D10235FFF781FEF7E7042B01D030
:10B490000135F3E7A64A023500274FF00A0E835C18
:10B4A00069785B0705F1010C06D417F1FF37E5D386
:10B4B0006420FFF7ADFCF8E730380EFB0707654660
:10B4C0000846ECE79B4A9C4912F803B0DA0803F0FF
:10B4D000070311F8028099491AF8027011F80290D6
:10B4E0001F4148FA03F817F0010749FA03F308F07F
:10B4F000010803F0010902D0E120FFF795FEB8F141
:10B50000000F02D0E620FFF78FFE5846FFF7CAFE75
:10B51000B8F1000F02D0E620FFF738FE17B1E120A6
:10B52000FFF734FEB9F1000FA8D02C209EE70120D0
:10B53000FFF7FCFDFFF7A8FD6DE70120FFF7B2FD67
:10B54000F8E70220F4E745F6F54296423BD036D3C1
:10B5500045F6F64296423AD0002B00F03084784B04
:10B5600000221A7045F602539E4237D845F6FA4338
:10B570009E423CD2A6F5B843023B9BB2132B36D970
:10B5800045F616439E4240F033846E4B6E481B785E
:10B5900003F0AA03002B6D4B15BF012200223521B9
:10B5A00029211A70FDF7F4FFFFF712FD33E7272377
:10B5B000E522E521F2E32623E122E021EEE3272341
:10B5C000E522E421EAE32623E122E221E6E3272340
:10B5D000E522E621E2E328230122EAE745F6A55326
:10B5E0009E4204D031D845F661539E42C8D1FEF741
:10B5F0002BFD4E4D45F612439E42288000F03581CA
:10B6000059D845F609439E4200F003812ED845F6ED
:10B6100005439E4200F0E9801DD845F603439E4253
:10B6200000F0DB8000F2DD8045F602439E4200F030
:10B63000CA802D880420E9B2FEF7D2FA290A222016
:10B64000FEF7CEFAFFF77EFDE5E6A6F5BB432D3B00
:10B650009BB2022B93E745F607439E4200F0D5804C
:10B6600040F2CF802B7843F04003AFE045F60D4326
:10B670009E4200F0E2800AD845F60B439E4200F05D
:10B68000D48040F2CC802B786FF341039EE045F6E6
:10B690000F439E4200F0E180C0F0D38045F6104396
:10B6A0009E4200F0DE8045F611439E42C1D12B78C8
:10B6B0006FF386138AE045F6FF439E4200F0DF8079
:10B6C000B6F5BA4F46D245F6FA439E4200F0918055
:10B6D00015D845F614439E4200F0DE80C0F0CB80C2
:10B6E00045F615439E42A4D12B78C3F3800282F025
:10B6F0000102D2B262F3820362F3C30366E045F64D
:10B70000FC439E4200F0A18077D345F6FD439E4264
:10B7100000F09F8045F6FE439E428AD16B7823F06D
:10B72000030343F0030356E04034002006340020B6
:10B730004DDB00082EDE00081EDE00081EDE0008BD
:10B740005134002050340020842F0020CA330020C0
:10B75000AEDE000845F661539E4200F0AC800FD883
:10B7600045F601539E4200F0A180B6F5BA4F40F273
:10B770008A8045F602539E427FF45BAF002196E03B
:10B7800045F6AD539E4223D00CD845F6A5539E42B4
:10B790007FF44FAF2B78C3F3000282F0010262F313
:10B7A000000313E045F6AE539E4242D045F6AF5338
:10B7B0009E427FF43EAF6B78C3F3C00282F0010279
:10B7C00062F3C30307E02B7843F001032B7030E7EB
:10B7D0006B7843F008036B702BE72B7843F0020380
:10B7E000F4E72B7843F00403F0E72B7843F00803E9
:10B7F000ECE76B7843F00103EDE76B7843F002036D
:10B80000E9E72B7843F01003E0E72B7843F02003BF
:10B81000DCE7FFF797FC2B7843F08003D6E72B7823
:10B8200023F00C0343F00C03D0E72B786FF30003F5
:10B83000CCE76B786FF3C303CDE72B786FF382030C
:10B84000C4E72B786FF3C303C0E76B786FF3000393
:10B85000C1E76B786FF34103BDE72B786FF30413F7
:10B86000B4E72B786FF34513B0E7FFF76BFC2B7849
:10B870006FF3C713AAE72B7823F00C03A6E76B78C6
:10B8800023F00303A7E76B78DA4302F0010262F3C7
:10B89000000362F341039EE7FFF754FC2B78C3F3E8
:10B8A000C01282F0010262F3C7138FE701210E205C
:10B8B000FEF796F9BDE62B78C3F3001282F0010281
:10B8C00062F3041382E7FFF73DFC46F2A810FFF78E
:10B8D0009FFAAB4BAB4A1A60FDF70EFEAA4B5878A5
:10B8E000C0F3800080F0010000F00100FFF702FCCF
:10B8F000A5782388ADF81030002D58D00498FEF7B5
:10B9000021FC9DF811100D29054607D89DF810302F
:10B91000072B03D803EBC101FCF7D2FEBDF81030B2
:10B92000ADF814300599994F2846FEF72CF9FEF72B
:10B930004DFA3E7894F806A0A37816F0070605465F
:10B940004FEA1A1A1CD01E46D3B1C5F3072202F0E3
:10B95000F002402A04D005F12002D2B2072A34D9DD
:10B96000894A567816F004060AD002200193FFF7A0
:10B97000A5FB3A78019B12F0070F0CBF01260026A9
:10B98000C5F303320B2A00F29180DFE812F02000A9
:10B9900020005E005E008F008F008F008F00070187
:10B9A0006801790179010120A0E700209EE79DF858
:10B9B00011000D28B2D89DF81030072BAED803EB3C
:10B9C000C000FCF765FE0546A8E70026D8E7C5F3EA
:10B9D0000722C5F3032812F0F00F18BF4FEA08182A
:10B9E0005FFA85F9B3B1B8F1000F0FD009F1200368
:10B9F000DBB2072B02D9B9F1000F09D1644A1378E1
:10BA000048EA030882F80080FFF7E2FA48464BE074
:10BA1000604AF4E74846FFF7B9FBB8F1000F45D09C
:10BA200009F12003DBB2072B02D9B9F1000F03D1D2
:10BA30004046FEF76FFB05E0564A137823EA0808F4
:10BA400082F80080FFF7C4FA30E0C5F3072202F065
:10BA5000F002C5F30328202A5FFA85F918BF4FEAE0
:10BA60000818B9F1000F0ED0B9F1010F6ED0002BFC
:10BA700076D0BAF1000F6DD0A379D907C6D56FF390
:10BA80000713A37166E0404A517848073DD4ABB331
:10BA9000B8F1000F07D03E4B187848EA000883F849
:10BAA0000080FFF795FA0020FFF7BEFBC5F30335D2
:10BAB000083D032D03D8FDF785FDFEF7B5FB96B1D4
:10BAC00097F9000010F001030DD1A370C0F3C70077
:10BAD000FFF72CFB2046FFF74FFC97F90000C0F35F
:10BAE000C700FFF7DFFA23886088A188002243EAB5
:10BAF000004007B0BDE8F04FFEF7B9BB1846FFF7AE
:10BB000045FBB8F1000FD1D092E793B1224B1A78E0
:10BB100048EA0200BAF1000F02D1FFF72DFBC5E79A
:10BB2000BAF1010FF9D14907C0D58242BED01870D1
:10BB3000BCE7BAF1000F05D1FEF7E4FA4046FFF783
:10BB400011FBB3E7BAF1010FB0D0F5E723B1BAF1B9
:10BB5000050FABD84046E0E7BAF1040FA6D8EDE7F1
:10BB6000BAF1000FEAD0B9F1390F0CBF4FF4FA5017
:10BB70000120FFF74DF94846FFF708FB96E700BFA5
:10BB8000FCFF0020EFBEADDE063400204034002074
:10BB900050340020CE3400204134002015F4407F82
:10BBA0002CD1002B82D1C5F342118A0015F010016F
:10BBB0001CBF0F21914005F00F0303FA02F318BFD9
:10BBC000C943C5F3812218BFC9B2022ADBB29C481F
:10BBD0000ED011D8012A0DBF027802780B431A4308
:10BBE00014BF134041EA02030370FFF72FFA5DE729
:10BBF00002780B435340F7E70B43F5E7C5F3012108
:10BC0000CAB20BB301F00102002A3FF44FAFC5F3F3
:10BC10004210820005F00F009040C3B215F01000F2
:10BC20001EBF0F209040C043C5F3812218BFC0B291
:10BC3000022A0FD00CD8012A824A07D01843137861
:10BC40001840FFF70BFA31E75208DDE7127813438B
:10BC50001843F6E718437B4B1B785840F1E75FFA2F
:10BC600085F9C5F3032823B14046FFF75FFA48463C
:10BC700053E74846FFF776FA4046FFF713FA15E711
:10BC80005FFA85F8A8F1F002042A4BD8DFE802F049
:10BC90000329141B230063B1BAF1040F3FF606AF6A
:10BCA000C5F3042301209840664B1B785840C0B26E
:10BCB000C7E7BAF1050FF1E7C5F30420002BDCD18B
:10BCC000FFF734FAF2E623B1C5F3042301209840CC
:10BCD000EDE71846B5E7DFF8789199F801205207AB
:10BCE00004D4C5F30420002BC7D0E9E77BB1C5F32A
:10BCF00004284046FFF71AFA99F801305B0742BF63
:10BD00004FEAC80343F003033B704046D8E70120E5
:10BD1000FFF7D4F9BAF1010F7FF6C8AE0220FFF7A2
:10BD2000CDF9C3E63BB1BAF1000F01D04046BBE606
:10BD3000C5F30420C4E7BAF1000F09D0B8F1390FF8
:10BD40000CBF4FF4FA500120FFF762F8404613E7AA
:10BD5000C5F3042091E745F6107290423FF4E7AB3B
:10BD600045F6117290423FF4ECAB45F6F342964231
:10BD70003FF421AC3FF6E7AB45F6D84296423FF49C
:10BD800016AC45F6D94296423FF425AC45F6D7426B
:10BD900096427FF4E1ABE122262311462046FFF7CD
:10BDA00095FAFFF738BB45F6107290423FF4C5ABE9
:10BDB00045F611729042D8D10220FFF7BFBB45F67D
:10BDC000164296427FF494AD1F4A1278002A1F4A09
:10BDD00014BF35212921184612F8015B0133A9420D
:10BDE000DBB208BF02F8010C062BF5D1FFF7DCBB74
:10BDF00045F65A539E423FF4D6AD11D8B6F5B84F2A
:10BE00003FF461AD45F6DE439E427FF471ADFEF72F
:10BE100027F9FFF797F946F2A810FEF7F9FF5BE55F
:10BE200045F65C539E423FF459ADFFF4BEAD45F676
:10BE3000A7539E42EDD05BE507B0BDE8F08F00BF91
:10BE4000013300201C340020CA330020862F00203C
:10BE500006340020224BF7B59A7912F0F00F0AD180
:10BE60009A7842B11F4A204F1278204E4FF6FF7C3D
:10BE70003978914201D103B0F0BD988858B3197850
:10BE80005C788DF804108DF80540BDF804506545C8
:10BE900021D006EBC20595F801E0A6451BD116F8A6
:10BEA00032408C4217D1A978A9B9A988091A89B258
:10BEB000C72910D899790A48012262F307119971AC
:10BEC000AB7962F30713AB71FFF756FA03B0BDE825
:10BED000F040FEF727B9013202F00702C8E700BFC1
:10BEE00080340020CD340020CC3400208C3400205D
:10BEF0002DE9F04FB34E8FB004460146062208A844
:10BF0000FCF72AF9B388318820786278A778B4F8EA
:10BF100004A0ADF8041096F800B096F801C0B04641
:10BF2000002B00F0E28089B24FF6FF7E714500F0F1
:10BF3000DC80B578002D00F0D880AAEB0303B1793E
:10BF40009BB2C72B01F0F00900F29380B9F1000F0A
:10BF500053D18DF808B08DF809C0BDF8083073458D
:10BF6000B94616D0B6F800C040EA02239C4510D16D
:10BF7000002F40F02981012363F307113046B1718E
:10BF8000FFF7FAF9B379A371002528460FB0BDE891
:10BF9000F08FBAF1000F40F01B81002FF4D098F819
:10BFA000063043F0010388F80630EDE701EBC306E5
:10BFB00096F801C0944506D111F833C0844502D1EA
:10BFC000B678002EE0D1013303F0070313E110F43B
:10BFD000706F00D07BB12033DBB2072B0BD920462A
:10BFE000FFF7CAF9A94606E010F4706FF3D0A27902
:10BFF00012F0F00FEFD14D46C7E78DF80CB08DF879
:10C000000DC0BDF80C3073450FD0338840EA0222D2
:10C0100093420AD14FB9A1712046FFF7ADF908222A
:10C0200021463046FCF798F8AFE72046FEF7C4F803
:10C03000D8B1D7B198F806301F2B0DD9B8F8002029
:10C04000ADF8282000228DF82A20ADF82CA08DF81C
:10C050002E300AA8FFF790F9082221465948FCF72C
:10C060007BF8FFF7F7FE01258FE72046FFF784F9FD
:10C07000F9E7B9F1000F08D13046FFF77DF9082242
:10C0800049463046FCF702F9B5E78DF810B08DF857
:10C0900011C0BDF8103073450FD0338840EA02223A
:10C0A00093420AD14FB9A1712046FFF765F90822E2
:10C0B00039463046FCF7EAF867E72046FEF77CF899
:10C0C0000028D2D0002FD0D098F806301F2BC3D92B
:10C0D000B8F80020ADF8302000228DF83220ADF8FD
:10C0E00034A08DF836300CA8B4E7002B53D08DF86F
:10C0F00014B08DF815C0BDF814104FF6FF729142C0
:10C1000049D098F80250002D45D1AAEB03039BB209
:10C11000C72B3CD83D46002FA7D08DF818B08DF81E
:10C1200019C0BDF81830934221D023786178B8F84F
:10C13000002043EA01239A4219D198F80630DA0721
:10C1400011D413F0F00F0ED003F0F002F02A1CBF50
:10C15000C3F303120132A3711CBF62F30713A3716F
:10C160002046FFF709F90822214616485AE72046DB
:10C17000FEF722F800287FF46FAF98F806302046CB
:10C1800043F0010388F80630FFF7F6F8FDE60822D1
:10C1900029460C488EE7002F3FF467AF2046FEF794
:10C1A0000BF8054600283FF460AF082221460548F9
:10C1B000FBF7D2FFB8F80000FDF7ECFFFFF74AFEEF
:10C1C000E3E600BF80340020BAF1000F3FF4E7AE91
:10C1D0008DF81C008DF81D20BDF81C104FF6FF7364
:10C1E00099423FF4DAAE002F7FF4D9AE0F49104BDD
:10C1F0000F781B780F49BB427FF4D8AE8DF8212011
:10C200008DF820000898FDF7C5FFC0F30332C3B2D4
:10C21000032A3FF6E4AE01A151F822F0CFBF000897
:10C22000CFBF0008E9BF0008E9BF0008CC340020F8
:10C23000CD3400208C3400202DE9F0418AB06B46CB
:10C2400083E803009DF802204FF0000812B12D4949
:10C2500081F80080ADF8168093E80300BDF8043043
:10C260000490ADF814308DF8122004AB93E803006D
:10C2700006AD85E803002846FFF73AFE224E234C20
:10C28000074608BB95E8030008AB83E80300BDF848
:10C290001C20BDF82010ADF80C10AAB189B24FF6E1
:10C2A000FF72914210D030782278451C05F00705C6
:10C2B00095420BD01946164B082203EBC000FBF742
:10C2C0004BFF3570FDF72EFF114D14E0FEF73AFFDE
:10C2D000082239460F4886F800802770FBF7D6FF02
:10C2E000F2E705EBC000FFF703FE40B1237801330E
:10C2F00003F007032370207833788342F1D10AB02A
:10C30000BDE8F081CE340020CC340020CD340020B4
:10C310008C34002080340020704770472DE9F74F9F
:10C32000464C666D7569B3691D4015F4805775619B
:10C3300000F08A80002702232370E764A76004F1DD
:10C340000C0504264FF0300855F8043BABB188F3D8
:10C35000118855F8043C586920B16FF001010C3088
:10C36000FCF772FC55F8043C986920B16FF00101AC
:10C370000C30FCF769FC87F31188013E45F8047C1A
:10C38000E2D1656D84F8346031462846FCF780FEC2
:10C39000A26DC5F834684FF001139768C5F81C38D2
:10C3A0004FF000604FF0FF3105EB46130136BE42FF
:10C3B000C3F80009C3F8000BC3F80819C3F8081B39
:10C3C000F2D91368E3656B62636D10221A611E690E
:10C3D00016F01006FBD11220FCF7E8FDD5F8003866
:10C3E00023F4FE63C5F80038AB6943F4402343F0FF
:10C3F0001003AB610923C5F81038C5F81438104B89
:10C40000E3604FF0C043C5F8103B0E4BC5F8003B4E
:10C41000C5F81069C5F80039E36D03F1100243F463
:10C420008013E265AB6263681B6813B13146034851
:10C43000984703B0BDE8F04FFCF7B2BB240F0020D3
:10C44000ECDE000840800010002D18DAD6F8003E1F
:10C450009A071EBFD6F8003E23F00303C6F8003E3D
:10C46000D6F8043823F00103C6F8043894F85030A5
:10C47000237063681B6813B10521AF4898472B05EB
:10C4800032D5AD48FCF72CFA237884F850300523D8
:10C49000237063681B6813B10421A74898470023E1
:10C4A000DFF89882A3604FF0040A4FF0300B9946F2
:10C4B00058F8043BABB18BF3118858F8043C586929
:10C4C00020B16FF001010C30FCF7BEFB58F8043CC2
:10C4D000986920B16FF001010C30FCF7B5FB89F3CE
:10C4E0001188BAF1010AE3D1A8040CD5D6F80838AE
:10C4F00013F0060FF36823F470530CBF43F410538A
:10C5000043F4A053F360290704D56368DB680BB1DB
:10C5100089489847EA0200F18A80AB023AD5636DF8
:10C5200000934FF000084FF001094FF0300A009BD4
:10C5300003EB4812D2F8003B03F44023B3F5802FFD
:10C5400020D1D2F8003B002B1CDA628909FA08F3EB
:10C5500008F1020B22EA030304EB8B0263815268A9
:10C56000D26812B14146744890478AF3118804EBAF
:10C570008B035B68986941680C30FCF765FB00230E
:10C5800083F31188A36D08F101089B685FFA88F8AE
:10C590009845CCD9E80619D5D4F854C0DCF8202049
:10C5A000C2F30A1002F00F0302F4F012B2F5802F6A
:10C5B00000F09780B2F5402F08D104EB83030022EE
:10C5C000DB681B6A0CF5805C90427DD12903D6F8AC
:10C5D000184813D5E20302D50020FCF73FFBA30364
:10C5E00002D50120FCF73AFB670302D50220FCF7D5
:10C5F00035FB260302D50320FCF730FB6D037FF5E6
:10C6000018AFE00702D50020FCF780FBA10702D598
:10C610000120FCF77BFB620702D50220FCF776FBCA
:10C6200023077FF506AF0320FCF770FB01E7636D7E
:10C6300000934FF000094FF0010B4FF0300AA36D4B
:10C640009B685FFA89F84345FFF467AF009B03EBF3
:10C650004813D3F8002902F44022B2F5802F30D1DC
:10C66000D3F80029002A2CDAD3F8002942F09042AE
:10C67000C3F80029D3F80029002AFBDB4146606D8E
:10C68000FCF706FD22890BFA08F322EA0303238153
:10C6900008F1020304EB83025268926822B141461A
:10C6A000254801939047019B8AF3118804EB83038B
:10C6B00000215B6858690C30FCF7C6FA002383F34D
:10C6C000118809F10109BAE7910708BFDCF8007089
:10C6D000072A98BF03F8017B02F1010298BF3F0AC5
:10C6E00072E7023304EB83020CF5805C5268D2F8E7
:10C6F00018E0DEF80820DEE9001EA1EB0E0E002196
:10C7000088420AD104EB830463689B699A680244F7
:10C710009A605A681044586058E711F0030F08BF38
:10C72000DCF800708E4588BF02F8017B01F1010141
:10C7300088BF3F0AE4E700BF240F0020300F00202D
:10C7400008B5084B5968890D01F03D018A05DA608A
:10C75000054AD36F13B1D2F880009847BDE808406E
:10C76000FCF71EBA006402400C33002008B5084BE9
:10C770005968090C01F03D010A04DA60054A536F5B
:10C780000BB1906F9847BDE80840FCF709BA00BFAD
:10C79000006402400C33002008B5084B5968890931
:10C7A00001F03D018A01DA60054AD36E0BB1106FCA
:10C7B0009847BDE80840FCF7F3B900BF00640240A9
:10C7C0000C33002008B5074B074A596801F03D01BA
:10C7D000D960536E0BB1906E9847BDE80840FCF7E6
:10C7E000DFB900BF006402400C33002008B5084BDD
:10C7F0001968890D01F03D018A059A60054AD36DDB
:10C800000BB1106E9847BDE80840FCF7C9B900BFEE
:10C81000006402400C33002008B5084B1968090C6D
:10C8200001F03D010A049A60054A536D0BB1906D09
:10C830009847BDE80840FCF7B3B900BF0064024068
:10C840000C33002008B5084B1968890901F03D0137
:10C850008A019A60054AD36C0BB1106D9847BDE808
:10C860000840FCF79DB900BF006402400C33002073
:10C8700008B5074B074A196801F03D019960536CF0
:10C880000BB1906C9847BDE80840FCF789B900BF30
:10C89000006402400C33002008B5084B5968890D2C
:10C8A00001F03D018A05DA60054AD36B0BB1106CCB
:10C8B0009847BDE80840FCF773B900BF006002402C
:10C8C0000C33002008B5084B5968090C01F03D01F4
:10C8D0000A04DA60054A536B0BB1906B9847BDE8C8
:10C8E0000840FCF75DB900BF006002400C33002037
:10C8F00008B5084B5968890901F03D018A01DA60E1
:10C90000054AD36A0BB1106B9847BDE80840FCF7A5
:10C9100047B900BF006002400C33002008B5074B48
:10C92000074A596801F03D01D960536A0BB1906A1A
:10C930009847BDE80840FCF733B900BF00600240EB
:10C940000C33002008B5084B1968890D01F03D0132
:10C950008A059A60054AD3690BB1106A9847BDE809
:10C960000840FCF71DB900BF006002400C330020F6
:10C9700008B5084B1968090C01F03D010A049A60DA
:10C98000054A53690BB190699847BDE80840FCF728
:10C9900007B900BF006002400C33002008B5084B07
:10C9A0001968890901F03D018A019A60054AD36836
:10C9B0000BB110699847BDE80840FCF7F1B800BF1B
:10C9C000006002400C33002008B5074B074A196885
:10C9D00001F03D01996053680BB190689847BDE83C
:10C9E0000840FCF7DDB800BF006002400C330020B7
:10C9F0002DE9F8432D4E3369F2681340DAB2D24381
:10CA00009B0732613DD5302383F31188284FB84608
:10CA10003D69706AFC69A968DFF89890031B8B4236
:10CA20003BD32B686A680C44FC6113605A60002396
:10CA30002B603A694A4508BFF36083F31188EB68BD
:10CA4000296928469847302383F311886A69002AA8
:10CA5000DED0716AD8F810000B1B9A4237BFD8F8A5
:10CA60002C20121942F00202C8F82C202CBF521AB6
:10CA70000022484509D12846FBF73EFE002383F3F8
:10CA80001188BDE8F843FCF78BB89B1838BF1A46ED
:10CA900029460848FCF732FABAE74D45EED00C4477
:10CAA000211AF861A960FCF7D9F9E7E7000C00400A
:10CAB000B0300020C03000200F4A08B5D368196993
:10CAC000D8680140C8B2C043C907186110D51178B1
:10CAD000042908D102211170002119601961D96857
:10CAE00021F0FF01D96053685B680BB10248984799
:10CAF000BDE80840FCF754B8580D002038B5174C75
:10CB0000E3691D69DA681540EAB2D2431A61AB07DE
:10CB100004D563681B690BB120469847680704D5A4
:10CB200063689B690BB10D489847290704D5636872
:10CB30001B6A0BB109489847EA0604D563689B6AEB
:10CB40000BB106489847EB0704D563689B680BB1A7
:10CB500002489847BDE83840FCF722B8680D00202D
:10CB60002DE9F047564CD4F85461F7683368DA057C
:10CB70009DB20DD5302383F311884FF40071201D31
:10CB8000FCF73CF86FF480733360002383F3118863
:10CB9000302383F31188DFF8308108F1080915F09C
:10CBA0002F031FD183F31188380668D5290666D56F
:10CBB000302383F31188A36C626C9A4202D1A26B7A
:10CBC000002A51D1A26B0132A2635A1CA26493F8CD
:10CBD0000080236C9A426FD23A48FBF7DCFDC6F81E
:10CBE000048049E02B0713D015F0080F0CBF00217B
:10CBF0008021E80748BF41F02001AA0748BF41F063
:10CC000040016B0748BF41F480714046FBF7F6FFD7
:10CC1000AD06D6F804A012D5636994F85C511BB92F
:10CC200004214046FBF7EAFF236A626A934209D176
:10CC300062693AB14FF480614046FBF7DFFF356827
:10CC4000ADB2ACE762690132626105EA0A055A1CBD
:10CC500022621D70E369226A9A4224BFA36923629B
:10CC60004846FBF798FDEAE708211748FBF7C6FF9F
:10CC70004FF67F733B40F360002383F311887A06FD
:10CC800016D56B0614D5302383F31188626CA36C20
:10CC90009A420AD1A36B43B127F040073F04102109
:10CCA00009483F0CFBF7AAFFF760002383F31188C4
:10CCB000BDE8F047FBF774BFE36BA3648CE700BFEC
:10CCC000880D0020B80D00208C0D0020EFF30983A3
:10CCD00005494A6822F001024A60683383F30988F3
:10CCE000002383F31188704730EF00E0302383F393
:10CCF0001188034BDB6898610F20FDF717BE00BF5A
:10CD0000B03000200D4B1868D968026810B4536029
:10CD10001A6001220275D86000230B758A680B69BE
:10CD20001B689C689442FBD85A680B604A605DF8A7
:10CD3000044B11605960FBF7F5B900BFB03000201B
:10CD40000C4B70B50820002493E826000439954266
:10CD500007D8D968914209D8013803F11003F3D1FB
:10CD600070BD51F8046F42F8046BF0E742F8044BD1
:10CD7000F0E700BFACE10008FEE77047544A08B591
:10CD800052F8041C534B99420DD1002342F8043C45
:10CD900083F31488504B1B6883F3088862B64F4BAB
:10CDA0001B689847FEE74E4A4E4913694E4843F0C8
:10CDB0001F031361136923F01F0313611369136BBE
:10CDC00043F01F031363136D43F01F031365136DCB
:10CDD000FBF7EDFC45494648FBF7E9FC4549464869
:10CDE000FBF7E5FC45494648FBF7E1FC4549464869
:10CDF000FBF7DDFC45494648FBF7D9FC4FF0805373
:10CE00001364444B4FF400411960136843F001036D
:10CE1000136013689907FCD5936823F003039360AC
:10CE20002F4B19469A6812F00C02FBD1186800F0DB
:10CE3000F90018609A601A6842F480321A600B6830
:10CE40009B03FCD54B6F43F001034B67244B5A6F98
:10CE50009007FCD5304A5A601A6842F080721A6016
:10CE60002C4A53685904FCD51D4B1A689201FCD515
:10CE70002A4A9A600322C3F88C20294B1A68294B4E
:10CE80009A42294B21D1294A1168294A91421CD141
:10CE90004FF481721A60244A136803F00F03022BC7
:10CEA000FAD10F4B9A6842F002029A609A6802F037
:10CEB0000C02082AFAD15A6C42F480425A645A6E23
:10CEC00042F480425A665B6E08BD40F20272E1E7AE
:10CED00000000120EFBEADDE0000FF1F0400FF1FB9
:10CEE000003802401CDF00080000024038DF000864
:10CEF0000004024054DF00080008024070DF000810
:10CF0000000C02408CDF000800100240A8DF00087F
:10CF1000001C0240007000401954410700948838FA
:10CF2000002004E011640020003C024000ED00E01D
:10CF300041C20F41B54B1A6962F01F022DE9F04F53
:10CF40001A611A6902F01F021A614FF0FF301A6964
:10CF50005A69586100215A6959615A691A6A62F01E
:10CF600080521A621A6A02F080521A621A6A5A6A67
:10CF700058625A6A59625A6A1A6C42F080521A64AC
:10CF80001A6E42F080521A661A6EA14A106840F476
:10CF900080701060186F00F44070B0F5007F1EBF05
:10CFA0004FF480301867196753689A4923F4007367
:10CFB0005360994B002291B01A6090460C201546A0
:10CFC00000FB08F25258156003EBC80208F1010893
:10CFD000B8F1100F5560F3D1904B914EDFF89CC221
:10CFE0004FF0FF329A60DA60C3F80824C3F80C24CB
:10CFF0008C4B70214FF0805083F81C13C3F88001D4
:10D0000018604FF0005083F81D13C3F880011860BA
:10D0100083F832134FF48021C3F884112020596023
:10D02000C02183F82513C3F8840158607E4B7F49E3
:10D03000D96001245D601C707D4B042119744FF090
:10D0400080415D60DD601D761C70D961794B1946A9
:10D050001C7241F8046B596003F10C0103F1D40612
:10D06000D960196103F154015D6199615962DE6112
:10D07000DE639E645E6403F5AA761E646E4EDE6413
:10D080006E4E1962C3F8546103F13001A6F1765671
:10D0900019635963A6F5465680219D62DB62996348
:10D0A000C3F858611B65664B03F10C06DE601E6118
:10D0B000644EDE61644EDE6230361E63634E1C7069
:10D0C0005D609D605D615D629D624FF0A043347064
:10D0D000F561B5623562F5627562356373655C4B07
:10D0E000B3654A4B75601F6CB56047F008071F6455
:10D0F0001F6E47F008071F66564F1B6EBB6843F054
:10D100000803BB60544B40F2A3179F62534FDA628F
:10D110009D615D63DD605D605C611C60C7F800C09F
:10D12000DFF85CC1C7F804C04D4FDFF858C1BD62DD
:10D13000C7F830C04FF0300989F3118862B6DFF8C4
:10D1400048C1DFF848E1DCF80CA02AF4E06A4FEAB5
:10D150000A4A4FEA1A4A4AEA0E0EDFF834A1CCF81E
:10D160000CE0DAF80CE04EF0807ECAF80CE0DFF854
:10D1700024A1DAF800E04EEA040ECAF800E08CF8C8
:10D180001F008CF82290C7E90625BD60FD625A6A2F
:10D19000F96307F11000C7E9040000233148B965BD
:10D1A000C7E9082307F13403FB6000F5AA73C0F850
:10D1B000C4312D4BC0F894312C4BC0F8B43102234C
:10D1C000C0F89851C0F8C041A0F8CC31C7E9007749
:10D1D000FD657F64C7E91455A7F84840C0F8C871D9
:10D1E000C0E97654C0F8D45100F5DC70FBF7ACFA16
:10D1F00085F311881E4B1F4A1A60FCF73DFC42461E
:10D2000000211D48FBF742F846E000BF003802400D
:10D21000007000405CDD00080C330020006002401C
:10D22000A0E2000800E100E0580D002000040040EA
:10D23000680D0020880D0020CD87000800100140F7
:10D24000E80E00200030014016000106240F0020E7
:10D2500010DF0008002004E0000C0040F032002045
:10D26000B030002010310020158E00083D810008EC
:10D27000480D0020F79C0008B8330020D03400206F
:10D2800000000120C0DE000800ED00E00003FA0508
:10D29000F0ED00E0001000E0C54BDFF88CC3D3F8E0
:10D2A000AC10D3F898E0C348C3F8D01003F10802DB
:10D2B0009A6503F11C02DA6503EB0902DA67BE4ADC
:10D2C000C3F8B02003F1B402C3F8B42003F1BC02E8
:10D2D000C3F8BC20C3F8C020D3F8A020C3F8CC10FA
:10D2E000043202FB0E18C3F8D820B44AC3F8D48025
:10D2F000C3F8DCE0D3F89480D3F8A8E0C3F8E010DA
:10D30000C3F8EC2003F1B00103F1F40283F8B84054
:10D3100083F8C440C3F8C850C3F8F420C3F8F82019
:10D3200083F8FC408CF800500570C3F8E450C3F853
:10D33000E850C3F8F010C3F80081C3F808E1C3F85F
:10D3400004E1D3F89C20C3F81481043202FB08E402
:10D35000C3F810219A4AC3F82421C3F80C41C3F83A
:10D3600018E1C3F81C51C3F82051C3F82811D3F8B1
:10D370008C2089F3118893F89040029702EB840483
:10D38000CDF80CC0A16193F89140093442F8241003
:10D3900093F892503446064615B102EB850291612E
:10D3A000884AC3F82C21022783F8B870002585F33A
:10D3B0001188626D936B23F40023936341F28830EC
:10D3C000FDF726FD4FF0300888F311887E4B63602F
:10D3D000E56025616561A561FBF7F2FD277085F3C6
:10D3E0001188626D794F936B43F400239363784BFC
:10D3F00041F288301D60774B3B60FDF709FD88F3F3
:10D400001188754B5A6A754B1A60754B1D60754BC8
:10D410001D6085F31188FCF7C9FBFCF7CCFB08B94C
:10D42000FCF758FCDFF804820E2558F8040B421C68
:10D4300001D0FCF762FC013D15F0FF05F5D1DFF8E6
:10D44000F081082558F8040B431C01D0FCF755FC6B
:10D45000013D15F0FF05F5D10E222946DFF8A88120
:10D460006148FAF713FF0E2229466048FAF70EFFCB
:10D4700001224FF400414046FBF75CFA4FF40043B1
:10D48000A8F81A300222294608A8ADF82050FCF767
:10D4900043F9BDF820204FF6E8639A4226D0FCF706
:10D4A000DFFD0220FCF74CFB514B1870FCF7CCFD64
:10D4B000504B1880FDF7E8FC4FF47A70FDF7A8FC9C
:10D4C000FDF7E2FC484B5B7ADB0914D0FCF78AF8E5
:10D4D000FCF7F6F8FCF7D0FA4FF6FF710020FCF7E6
:10D4E00015FB454B454A1A60FCF706F8FCF763FB51
:10D4F0000028D6D1D3E70320FCF722FB404B18705D
:10D50000FDF7A4FD3F4B404918784FF400454D838B
:10D51000FCF79EFE012808BF0D833C4D0122082127
:10D520002846FBF707FA08236B8301221021FBF73B
:10D5300001FA10236B83364B3A681A60039B354F10
:10D540001978337800252A46994273D0184601226B
:10D55000385C013303F00F0315460528F4D80FF2A9
:10D56000080C5CF820F000BF47D5000849D500083A
:10D5700047D5000847D5000881D500088DD500089B
:10D580003370254B4FF001021A70D7E73370224BEE
:10D59000224800211970224B1970224B0622197063
:10D5A000FAF774FEFCF70EF8FCF73EFEC6E700BF84
:10D5B000180C0020C933002078E200080F92000800
:10D5C00037910008A40C002068E200089433002082
:10D5D000E4330020000C0020000C004088340020C0
:10D5E000183400203C3400201D3400204234002038
:10D5F0000033002006340020FCFF0020EFBEADDE2B
:10D60000013300201C3400200000024000040240CE
:10D6100090330020B833002013340020862F0020E0
:10D6200050340020CE340020C83300202CE2000803
:10D63000CCDE000802B131702378052B07D1BB4F37
:10D640004FF000052378052B66D0FDF7C1FCDFF80D
:10D65000F082FDF719FCB648454600230133DBB2E2
:10D660000E2B15F8011B10F8012B6AD09142F5D052
:10D67000AF4B01930027019B18F8019B13F801ABF6
:10D680000193D14541D051463846FCF7C5FC451EB3
:10D6900005406DB283468DB10025E8B2874209D0BE
:10D6A000A34B595DFCF7B8FC0BEA0000C0B2421E68
:10D6B00002422AD101350E2DEFD100254FF0010B8A
:10D6C00089EA0A091BEA090F15D01BEA0A0F14BFE1
:10D6D000012200228DF810508DF811708DF8122063
:10D6E000FBF71CFF40F00100ADF8140004AB93E819
:10D6F0000300FEF7A1FD0135EDB24FEA4B0B082DFB
:10D700005FFA8BFBDED108F801AC0137FFB20E2FB8
:10D71000B1D1FBF703FF30E02846FCF785FD40F26E
:10D72000A460FDF775FBFDF7AFFB814A0E2312F8ED
:10D73000011B002940F07B81013B13F0FF03F6D170
:10D7400080E7914294D1FBF7E9FE7A4D2B8887B2AE
:10D75000BB4212D04FF6FF73ADF8183000238DF89E
:10D760001A30FBF7DBFE40F00100ADF81C0006AB01
:10D7700093E80300FEF760FD2F80FBF723FF6E4B5D
:10D780001A788242054605D01870FBF7C7FE284676
:10D79000FCF74AFDDFF8ACA10AF1B00BDAF8B030C3
:10D7A00020221D6A0DEB020100235846A8470028DD
:10D7B0003FF4C4AE9DF82030013BC7B2122B58D8BD
:10D7C000DFE813F013001A0047005B006C007B00D9
:10D7D000570057005700570057007E00820087000F
:10D7E000C200E600E900EB00160100238DF82130AD
:10D7F0000A238DF8223022E09DF82130022B0FD031
:10D80000032B10D0012B34D1FBF788FE030E8DF8CB
:10D810002230030C8DF8233040BAADF824000EE01E
:10D82000FCF7C4F9F2E742490DF12102012301336B
:10D83000DBB211F8010B02F8010F0F2BF7D1202FEB
:10D84000ACD1DAF8B0303D485B683A4608A9984751
:10D85000A4E79DF82130022B0BD1BDF82210BDF8B2
:10D86000243041EA034109BAC9B22620FCF7B8F9CD
:10D87000E5E7FF238DF82030E1E79DF8210003283C
:10D880000AD89DF822100D2906D89DF82320072AD2
:10D8900002D8FCF764F9BFE70020BDE79DF824201B
:10D8A0009DF825309DF822109DF8210043EA0223BF
:10D8B0009DF82320FCF7B1F9C1E7FCF7C9F9BEE7F1
:10D8C00010238DF82130BAE71C238DF8213059231D
:10D8D0008FE79DF821309DF8225045EA032505F297
:10D8E000A7389DF82330C5F57C450DF12009593541
:10D8F00041F65842002108EB050080B283429ED9D0
