:020000040800F2
:10000000000400201D8100081F8100081F810008D6
:100010001F8100081F8100081F8100081F81000840
:100020001F8100081F8100081F8100087DBC000897
:100030001F8100081F8100081F8100081F81000820
:100040001F8100081F8100081F8100081F81000810
:100050001F8100081F8100081F8100081F81000800
:100060001F8100081F8100081F810008F9C90008CE
:1000700021CA00084DCA000879CA0008A5CA0008AC
:10008000CDCA0008F9CA00081F8100081F810008B6
:100090001F8100081F8100081F8100081F810008C0
:1000A0001F8100081F8100081F8100081F810008B0
:1000B00011C8000825C800081F8100081F8100081A
:1000C0001F8100081F8100081F8100081F81000890
:1000D0001F810008FDC700081F8100081F8100085C
:1000E0001F8100081F8100081F8100081F81000870
:1000F0001F8100081F8100081F81000825CB000810
:100100001F8100081F81000839C800081F810008EE
:100110001F8100081F8100081F8100081F8100083F
:1001200051CB000879CB0008A5CB0008D1CB000843
:10013000FDCB00081F8100081F8100081F810008F7
:100140001F8100081F8100081F81000849D4000892
:1001500025CC000851CC00087DCC00081F81000888
:100160001F8100081F8100081F8100081F810008EF
:100170001F8100081F8100081F8100081F810008DF
:100180001F8100081F8100081F8100081F810008CF
:100190001F8100081F8100081F8100081F810008BF
:1001A0001F8100081F8100081F8100081F810008AF
:1001B0001F8100081F8100081F8100081F8100089F
:1001C0001F8100081F8100081F8100081F8100088F
:1001D0001F8100081F8100081F8100081F8100087F
:1080000072B6374880F30888364880F309883648C6
:108010003649086040F20000CCF200004EF63471A0
:10802000CEF200010860BFF34F8FBFF36F8F40F2B5
:108030000000C0F2F0004EF68851CEF20001086058
:10804000BFF34F8FBFF36F8F4FF00000E1EE100AC8
:108050004EF63C71CEF200010860062080F31488D1
:10806000BFF36F8F03F014FB03F082FA4FF055302B
:108070001F491B4A91423CBF41F8040BFAE71D49D6
:10808000184A91423CBF41F8040BFAE71A491B4ACF
:108090001B4B9A423EBF51F8040B42F8040BF8E721
:1080A00000201849184A91423CBF41F8040BFAE7F6
:1080B00003F0F2FA03F0EDFA144C154DAC4203DA7A
:1080C00054F8041B8847F9E702F01CF9114C124DD3
:1080D000AC4203DA54F8041B8847F9E703F0DABA34
:1080E00000040020000C00200000000808ED00E063
:1080F00000000020000400202CE00008000C0020FC
:10810000240C0020280C0020A4320020008000084D
:1081100000800008008000080080000870E700F080
:1081200000F8FEE72DE9F04F2DED108AC1F80CD0D4
:10813000C3689D46BDEC108ABDE8F08F002383F331
:1081400011882846A047002003F026FDFEE703F033
:1081500081FC00DFFEE7000053B94AB9002908BFDF
:1081600000281CBF4FF0FF314FF0FF3000F074B912
:10817000ADF1080C6DE904CE00F006F8DDF804E07E
:10818000DDE9022304B070472DE9F047089E04465C
:108190008846002B40F085808A42154648D9B2FABD
:1081A00082F24AB1C2F1200701FA02F320FA07F77E
:1081B000954047EA030894404FEA154E230CB8FB5C
:1081C000FEF71FFA85FC0EFB178843EA084307FBFE
:1081D0000CF1994209D9EB1807F1FF3080F0E380E8
:1081E000994240F2E080023F2B445B1AA4B2B3FBF9
:1081F000FEF00EFB103344EA034400FB0CFCA445E4
:1082000009D92C1900F1FF3380F0CB80A44540F24E
:10821000C88002382C4440EA0740A4EB0C04002735
:108220001EB1D4400023C6E900433946BDE8F087BB
:10823000002A53D0B2FA82F2002A40F0B680491BDD
:108240004FEA154E1FFA85F80127B1FBFEFC230CFF
:108250000EFB1C1143EA014308FB0CF1994207D9BC
:10826000EB180CF1FF3002D2994200F2EC80844608
:10827000591AA3B2B1FBFEF00EFB101443EA0444FA
:1082800008FB00F8A04507D92C1900F1FF3302D2F2
:10829000A04500F2DC801846A4EB080440EA0C403C
:1082A000BEE78B4208D9002E78D00027C6E900012E
:1082B00038463946BDE8F087B3FA83F77FB98B4279
:1082C00002D3824200F2BD80841A61EB03030120D5
:1082D0009846002EA9D0C6E90048A6E7FFDEC7F100
:1082E0002005BB4022FA05FC4CEA030C01FA07F416
:1082F00020FA05F821FA05F34FEA1C4E48EA040477
:10830000B3FBFEF9210C0EFB19331FFA8CF841EA7E
:10831000034309FB08FA9A4502FA07F200FA07F14B
:108320000BD91CEB030309F1FF3080F088809A45DC
:1083300040F28580A9F102096344A3EB0A03A4B2C9
:10834000B3FBFEF00EFB103344EA034400FB08F8D5
:10835000A04508D91CEB040400F1FF336BD2A04503
:1083600069D90238644440EA0940A4EB0804A0FB40
:1083700002894C45C6464B4654D351D0002E69D095
:10838000B1EB0E0264EB030404FA05F522FA07F3DD
:10839000FC401D43C6E90054002746E737463046F7
:1083A00043E7184637E707461FE7C2F1200320FAE4
:1083B00003F7954001FA02F021FA03F34FEA154E54
:1083C0003843010CB3FBFEF71FFA85F80EFB173399
:1083D00041EA034107FB08F38B4204FA02F407D990
:1083E000691807F1FF3C28D28B4226D9023F294465
:1083F000CB1A81B2B3FBFEF00EFB103341EA03410E
:1084000000FB08F38B4207D9691800F1FF3C10D23A
:108410008B420ED902382944C91A40EA074714E7AB
:108420004145ABD2B8EB020E69EB0C0201381346A2
:10843000A4E76046F0E7184695E76746D8E7814627
:108440007BE7384645E7ACF1020C2B4410E70238D5
:108450002C4421E73746E8E6704700BF032A70B492
:1084600012D940EA0105AD0704460B4620D1194652
:10847000204653F8045B54F8046BAE4218D1043A1A
:10848000032A20461946F2D8541E72B103780A789E
:108490009A4208BF241806D00CE010F8013F11F8EA
:1084A000012F934206D1A042F7D1002070BC704743
:1084B000541EEBE7981A70BC704700BF844641EA2F
:1084C000000313F003036DD1403A41D351F8043B4C
:1084D00040F8043B51F8043B40F8043B51F8043B9E
:1084E00040F8043B51F8043B40F8043B51F8043B8E
:1084F00040F8043B51F8043B40F8043B51F8043B7E
:1085000040F8043B51F8043B40F8043B51F8043B6D
:1085100040F8043B51F8043B40F8043B51F8043B5D
:1085200040F8043B51F8043B40F8043B51F8043B4D
:1085300040F8043B51F8043B40F8043B51F8043B3D
:1085400040F8043B51F8043B40F8043B403ABDD2AC
:10855000303211D351F8043B40F8043B51F8043B4E
:1085600040F8043B51F8043B40F8043B51F8043B0D
:1085700040F8043B103AEDD20C3205D351F8043BDD
:1085800040F8043B043AF9D2043208D0D2071CBFA9
:1085900011F8013B00F8013B01D30B8803806046D2
:1085A000704700BF082A13D38B078DD010F0030348
:1085B0008AD0C3F10403D21ADB071CBF11F8013BB8
:1085C00000F8013B80D331F8023B20F8023B7BE707
:1085D000043AD9D3013A11F8013B00F8013BF9D232
:1085E0000B7803704B7843708B78837060467047CC
:1085F000F0B4860746D0541E002A3CD0CAB20346C7
:1086000002E014F1FF3436D303F8012B9D07F8D1B3
:10861000032C29D9CDB245EA05250F2C45EA05459D
:1086200033D9A4F11006360903F1200707EB06172A
:1086300003F1100242E9045542E902551032BA42F0
:10864000F8D1721C14F00C0F03EB021204F00F06A9
:1086500013D0331F23F003030433134442F8045BA5
:108660009342FBD106F003042CB1C9B21C4403F8B9
:10867000011B9C42FBD1F0BC704734461346002CD2
:10868000F3D1F8E714460346C2E71A462646E0E768
:1086900020F00F0200F00F030120984080B21083F9
:1086A000704720F00F0200F00F030120984080B2C5
:1086B0005083704710B5054C01224FF4004120460D
:1086C00004F015FB4FF40043638310BD000002402B
:1086D00010B504460648FFF7E4FF204600F0CCF84A
:1086E000012802D10248FFF7D3FF204610BD00BF8A
:1086F0000F000240012070470120704708B5FFF7C6
:10870000FBFF08BD704708B5FFF7FCFF08BD000080
:1087100013B502AB03E903000F4B1B78B3B99DF807
:108720000230009873B16AB100F00EFD04460146B4
:10873000009800F0D7FC0099204602B0BDE8104038
:1087400001F05EBB00F0EAFC0446F4E7009800F09C
:10875000FBFC0099F1E700BF2D0C0020034610B48C
:1087600000885C880A4640EA044099885DF8044B1A
:10877000FFF7CEBF0120704710B500210446FFF778
:10878000EDFF2146FFF7BFFF10BD01F085BC01F0F2
:1087900088BC704708B500F09DFBFFF7FAFF46F272
:1087A000A810BDE8084003F0FCB908B5FFF7F2FFD8
:1087B000BDE8084002F07ABC08B5FFF7EBFFBDE862
:1087C000084002F07DBC38B501210546FFF7C6FF21
:1087D00029460446FFF792FF08B9002038BD294614
:1087E000204602F0BBFA0028F7D02946204602F0C6
:1087F000C9F80028F1D02946204602F02DFA0028B9
:10880000EBD0AB785BB145F65B539C4220D00AD8E5
:10881000B4F5B84F13D045F6DF439C4212D028463A
:10882000FFF768FFDAE745F65D539C420DD012D39F
:1088300045F6A8539C42F2D1FFF7BEFFCDE7FFF704
:10884000B4FFCAE701F042F9F6E701F0A1F8E6E764
:1088500001F0AAF8E3E701F0AAF8E0E708B502F0B2
:108860007AFBBDE8084000F05BB808B500F05DF8A1
:10887000BDE8084002F074BB030A002B16BF18467F
:1088800000230823020918BF1046C0F38F0218BF47
:10889000043312B10233DBB21046C0F34F0008B10B
:1088A0000133DBB218467047704708B5FFF7FCFF8D
:1088B00008BD01207047000010B50446FFF7F9FF1E
:1088C00078B1084BE2B212F0010F4FF0080114BF6B
:1088D0001983598312F0020F4FF0100214BF1A834C
:1088E0005A8310BD0004024010B5084C0122082133
:1088F000204604F0FCF9082363830122102120465E
:1089000004F0F5F91023638310BD00BF000402409A
:1089100010B50446FFF7C9FF2046FFF7CDFF10BD95
:1089200008B50020FFF7F4FF08BD08B502F06CFAA7
:10893000FFF7EEFF08BD000010B502F065FA074B27
:108940001A788242044607D0187002F053FB044B99
:1089500018602046FFF7DCFF10BD00BF2C0C002084
:10896000280C002010B586B06C4684E803009DF802
:1089700002300BB100F04EFF0023ADF8163094E842
:108980000300ADF8141089B20490ADF80C0004ACEB
:1089900029B994E8030000F06FFE06B010BDBDF8E1
:1089A0000C204FF6FF739A42F3D02046FFF7E2FE09
:1089B0000028EED1F1E7008800F0E8BB10B50446CE
:1089C00010B3031FDBB2A02B11D8104B014618685F
:1089D00002F058FA20B1204600F0C8FE00F04AFF2D
:1089E000204600F0BBFEBDE8104000F043BF00F1A0
:1089F0002003DBB2072B07D800F007040120A040BA
:108A0000C0B200F0E1FEEEE710BD00BF000C002098
:108A100008B5034648B3021FD2B2A02A05D800F019
:108A2000A5FEBDE8084000F025BF00F12002D2B24B
:108A3000072A07D800F0070301209840C0B200F0D1
:108A4000CBFEEEE700F15B02D2B2022A04D800208E
:108A5000BDE8084002F0E8B95833DBB2162B04D861
:108A60000020BDE8084002F0EFB908BD38B5054662
:108A70000C46FFF7A3FF1CB92846FFF7C9FF38BD16
:108A80006420013C03F08DF8A4B2F4E708B539285E
:108A90000CBF50210021FFF7E9FF08BD08B528B140
:108AA00000F092FEBDE8084000F0E4BE08BD08B545
:108AB00028B100F091FEBDE8084000F0DBBE08BD23
:108AC0002DE9F0478779857881460C4600F06CFEE9
:108AD0003F098046D8B1A846CDB1C4F3072303F0BF
:108AE000F003402B04D004F12003DBB2072B20D984
:108AF000AE4B93F8018018F0040808D0022000F073
:108B000013FF00F051FE80F001005FFA80F8C4F31B
:108B100003330B2B3FD8DFE813F00F000F0060008A
:108B200060003E003E003E003E00C60024013401CD
:108B300034014FF00008EAE7C4F30723C4F3032627
:108B400013F0F00F18BF3601E7B295B156B107F137
:108B50002003DBB2072B304600D93FB900F034FECA
:108B600000F088FE3846FFF729FF14E000F042FECF
:108B7000F6E73846FFF74CFF6EB107F12003DBB292
:108B8000072B304600D917B900F026FE01E000F0AF
:108B900039FE00F06FFEC4F30334083C032C03D805
:108BA00002F032F9FFF7B4FEB8F1000F00F0428195
:108BB00000F0F2FD10F0010040F03C8189F8020065
:108BC00000F0E2FD00F024FA484600F049F900F018
:108BD000DBFDBDE8F04700F027BAC4F3072303F03C
:108BE000F003C4F30326202B5FFA84FA18BF360182
:108BF000BAF1000F0FD0BAF1010F3CD0002D44D0D4
:108C0000002F3BD099F80630D9073CD56FF30713F6
:108C100089F8063032E0654B5B7858070FD43DB1D8
:108C200026B1304600F0D0FD00F024FE00209AE787
:108C30002846FFF7EDFE002EADD03046A4E785B103
:108C400037B900F0EDFD3043C0B2FFF727FFA2E7D0
:108C5000012FF6D100F0E4FD3043C0B200F0ECFD8E
:108C600099E72FB900F0FAFD3046FFF720FF92E7B1
:108C7000012F90D0F6E71DB1052F8CD83046E4E7E0
:108C8000042F88D8F0E750466DE7002FECD0BAF1FA
:108C9000390F0CBF4FF4FA50012002F082FF50460A
:108CA000FFF7B6FE77E714F4407F29D1002D7FF45B
:108CB00072AFE206C4F3421348BF0F254FEA8303A5
:108CC00048BF9D4004F00F0048BFED4300FA03F099
:108CD000C4F3812348BFADB280B2022B40EA050045
:108CE00008D00AD8012B02D000F068F953E700F051
:108CF0005DF950E700F06AF94DE700F054F94AE7F2
:108D0000C4F30122D3B20DB302F00103002B3FF4F0
:108D100042AFC4F34210820014F010001CBF0F20B9
:108D2000904004F00F0318BFC04303FA02F3C4F3EA
:108D3000812218BF80B29BB2022A40EA03000AD007
:108D40000CD8012A04D000F08FF924E75B08DDE796
:108D500000F082F91FE700F08FF91CE700F042F9FC
:108D600019E7E7B2C4F3032625B1304600F050F905
:108D700038466AE73846FFF79AFE304600F054F965
:108D800009E7E6B2A6F1F003042B3FD8DFE803F0D1
:108D90000324101720003DB1042F3FF6FCAEC4F3AE
:108DA000042000F04DF9F6E6052FF6E7D82F002055
:108DB000C4F30420002DE1D100F02AF9EBE625B13F
:108DC000C4F3042000F01DF9E5E600F017F9E2E62F
:108DD000194B5B785B0704D4C4F30420002DCDD07D
:108DE000EAE74DB1C4F30425284600F011F9032148
:108DF000284600F075FDCEE6012000F095FD012F1C
:108E00007FF6C9AE022000F08FFDC4E62DB10FB190
:108E10003046A8E6C4F30420CEE747B1392E0CBF94
:108E20004FF4FA50012002F0BCFE304638E7C4F39C
:108E30000420A3E7BDE8F087D82F002038B50188CB
:108E40000446807800F0AEF9054600F01DF900F008
:108E5000A9F829462046BDE83840FFF731BE00009A
:108E600037B5858804460146022201A8FFF726FB94
:108E7000F5B1BDF804204FF6FF739A4218D0204692
:108E8000FFF7A1FC70B900F08FFC88B1A3787BB12B
:108E9000084B5B785B070BD5022003B0BDE8304080
:108EA00000F042BD2046FFF7C9FF2046FFF764FCF3
:108EB00003B030BDD82F002008B500F0ABFCBDE8F2
:108EC000084000F0D7BC08B500F058FCBDE80840E9
:108ED000FFF7F2BF08B500F087FCBDE80840FFF7D8
:108EE000F2BFC0F303320E3202F00F02092A10B5AE
:108EF000C4B21BD8012101FA02F340F2033213423B
:108F000003D113F010000DD110BDF02C10D004D8F7
:108F1000E72C8CBF00200120F6E7F42C14BF0020C2
:108F20000120F1E7E72C03D9F12CF7E70020EBE76C
:108F30000846E9E737B5858804460146022201A8BC
:108F4000FFF7BCFA6DB1BDF804204FF6FF739A42EB
:108F500007D0208800F01AF903B0BDE83040FFF7D1
:108F6000C0BF002003B030BD82B002AB03E90300F4
:108F700002B0704782B002AB03E9030002B0704751
:108F8000704708B5FFF7FCFF08BD000008B5FFF704
:108F9000F8FF034B1880BDE80840FFF78DBF00BF06
:108FA0002E0C00207047FFF7F1BF0000024B1B881A
:108FB0001843FFF7EBBF00BF2E0C0020024B1B88AD
:108FC0001840FFF7E3BF00BF2E0C0020024B1B88A8
:108FD0005840FFF7DBBF00BF2E0C002008B5FFF79D
:108FE00077FB08BD08B5FFF7F9FF034B1880BDE814
:108FF0000840FFF761BF00BF300C00200020FFF7E2
:10900000F1BF012303FA00F080B2FFF7EBBF0000CD
:10901000012303FA00F0034B1B88184380B2FFF7CB
:10902000E1BF00BF300C0020012303FA00F0034B26
:109030001B8823EA0000FFF7D5BF00BF300C0020DB
:10904000012303FA00F0034B1B88584080B2FFF75E
:10905000C9BF00BF300C0020024B1B881843FFF72C
:10906000C1BF00BF300C0020024B1B881840FFF727
:10907000B9BF00BF300C0020024B1B885840FFF7DF
:10908000B1BF00BF300C0020704701F0070330B5BE
:10909000C908012402EB81029C40E4B2013A00219C
:1090A00012F8015F20FA01F343F300036B40234001
:1090B00001316B4004291370F2D130BD10B500228C
:1090C00000F00704C00801EB800110468B5CE34010
:1090D00003F00103934001321843042AC0B2F5D1D2
:1090E00010BD000017B40C46C0F307210D29ADF8E0
:1090F00004000CD89DF80430072B08D8064A03EB6F
:10910000C101204603B05DF8044BFFF7BEBF03B0BA
:109110005DF8044B704700BF320C002082B0ADF800
:109120000400C0F307200D2809D89DF80430072B50
:1091300005D8044903EBC00002B0FFF7BFBF002011
:1091400002B07047320C00200E4B73B51E880E4BD8
:10915000ADF804001B880F241E4346FA04F3DB0716
:10916000E5B206D414F1FF34F7D20025284602B048
:1091700070BD0199284600F05DFE80B20128F1D053
:10918000F4E700BF300C00202E0C002007B5ADF82E
:1091900004000198FFF7D8FF019903B05DF804EBD4
:1091A00000F048BE13B5104BADF804101B782BB17E
:1091B000019802B0BDE81040FFF7E8BF70B1019818
:1091C000FFF7C2FF044601460198FFF78BFF0199A4
:1091D000204602B0BDE8104000F02CBE0198FFF719
:1091E0009DFF0446F3E700BF2D0C0020F8B50C4BA3
:1091F0000C4E1C780C4D3378A34200D1F8BD05EB22
:10920000C40335F834005F889A88D98840EA07405B
:1092100042EA01410134FFF7ADFE04F00704EAE73A
:10922000B30C0020B20C0020720C0020064B10B4CE
:1092300018885C889A88D98840EA044042EA01414B
:109240005DF8044BFFF796BE6A0C0020224BF7B581
:109250009A7912F0F00F0AD19A7842B11F4A204F42
:109260001278204E4FF6FF7C3978914201D103B03D
:10927000F0BD988858B319785C788DF804108DF893
:109280000540BDF80450654521D006EBC20595F8B0
:1092900001E0A6451BD116F832408C4217D1A978BF
:1092A000A9B9A988091A89B2C72910D899790A4891
:1092B000012262F307119971AB7962F30713AB7165
:1092C000FFF7CEFD03B0BDE8F040FFF78FBF0132DE
:1092D00002F00702C8E700BF6A0C0020B30C0020B0
:1092E000B20C0020720C00202DE9F04FC54E8FB05B
:1092F00004460146062208A8FFF7E0F8B388328842
:1093000020786178A778B4F80490ADF8042096F836
:1093100000E096F801C0B046002B00F0F48092B255
:109320004FF6FF7B5A4500F0EE80B578002D00F037
:10933000EA80A9EB0303B2799BB2C72B02F0F00AD3
:1093400000F29780BAF1000F54D18DF808E08DF843
:1093500009C0BDF808305B45BA4617D0B6F800C062
:1093600023889C4512D1002F40F04E81012363F3E6
:109370000712B271FFF75AFF3046FFF771FDB3795C
:10938000A371002528460FB0BDE8F08FB9F1000F9A
:1093900040F03E81002FF4D098F8063043F00103EE
:1093A00088F80630EDE702EBC30696F801C08C455D
:1093B00006D112F833C0844502D1B678002EE0D130
:1093C000013303F0070336E110F4706F00D07BB176
:1093D0002033DBB2072B0BD92046FFF741FDAA460D
:1093E00006E010F4706FF3D0A27912F0F00FEFD115
:1093F0005546C7E78DF80CE08DF80DC0BDF80C3070
:109400005B4510D03188238899420CD15FB9A27195
:109410002046FFF725FD082221463046FFF74EF88B
:10942000FFF704FFAEE72046FFF784FDE8B1E7B1A0
:1094300098F806301F2B0DD9B8F80020ADF8282079
:1094400000228DF82A20ADF82C908DF82E300AA835
:10945000FFF706FD082221466A48FFF72FF8FFF7BD
:10946000F5FEFFF7E3FE01258CE72046FFF7F8FC49
:10947000F9E7BAF1000F17D108AB8DF82270ADF8FB
:1094800024908DF820008DF8211093E80300FFF759
:109490006BFD3046FFF7E4FC082251463046FFF7EB
:1094A000A7F8FFF7C3FEA3E78DF810E08DF811C011
:1094B000BDF810305B450ED03188238899420AD11F
:1094C0004FB9A2712046FFF7CBFC0822394630463F
:1094D000FFF78EF856E72046FFF72CFD0028C4D092
:1094E000002FC2D098F806301F2BB3D9B8F800204F
:1094F000ADF8302000228DF83220ADF834908DF890
:1095000036300CA8A4E7002B66D08DF814E08DF857
:1095100015C0BDF814504FF6FF7295425CD098F814
:109520000250002D58D1A9EB03039BB2C72B40D8A2
:109530003D46002F99D08DF818E08DF819C0BDF880
:109540001830934225D0B8F8002023889A4220D1C1
:1095500098F80630DA0716D413F0F00F13D003F0A2
:10956000F002F02A1CBFC3F303120132A37118BF2B
:1095700062F30713204618BFA371FFF771FC08229E
:10958000214620484AE7082221461E48FEF796FF5A
:10959000F8E62046FFF7CEFC00287FF45BAF98F892
:1095A0000630204643F0010388F80630FFF758FCE8
:1095B000E8E68DF82270ADF824908DF820008DF843
:1095C000211008AB93E80300FFF7CEFC08222946E0
:1095D0000C48FFF70DF823E7002F3FF446AF204675
:1095E000FFF7A8FC054600283FF43FAF08222146BC
:1095F0000448FEF763FF0348FFF7DDF9FFF726FE97
:109600000EE700BF6A0C0020B9F1000F3FF4C4AEB2
:109610008DF81C008DF81D10BDF81C204FF6FF734F
:109620009A423FF4B7AE002F7FF4B6AE0F4A104B0C
:1096300017781B780F4ABB427FF4B5AE8DF8200037
:109640008DF821100898FFF7A1FDC0F30332C3B2D3
:10965000032A3FF6C1AE01A151F822F0C9930008D8
:10966000C9930008E3930008E3930008B20C0020BC
:10967000B30C0020720C0020F0B587B06C4684E873
:1096800003002046FFF730FE304E314D074688B1CB
:10969000BDF80430BDF80020ADF8102043B192B2FF
:1096A0004FF6FF739A4203D094E80300FFF762FC81
:1096B000284C45E094E8030004AB83E80300BDF8C0
:1096C0000420BDF81010ADF80C10002AF0D089B2BB
:1096D0004FF6FF729142EBD030782A78441C04F0A8
:1096E000070494420AD019461A4B082203EBC00023
:1096F000FEF7E4FE3470FFF779FDD9E7FFF7EAFBE8
:1097000008223946144837702F70FEF771FFCFE7F3
:1097100004EBC000FFF7E8FDB0B12B7834F833005C
:1097200004EBC3035F889A88D98840EA074042EA7D
:109730000141FFF71FFC2B78013303F007032B7067
:10974000287833788342E3D107B0F0BDB20C002013
:10975000B30C0020720C00206A0C0020024B014662
:10976000186801F0C2BB00BF000C0020024B01468C
:10977000186801F0BCBB00BF000C0020014B18684A
:1097800001F0B7BB000C0020024B93F90000C0F3BE
:10979000C7007047C40C0020024B187800F0070087
:1097A000704700BFC40C0020034B187810F007006E
:1097B00018BF0120704700BFC40C0020014B18786F
:1097C000704700BFC60C0020024A1378184310707F
:1097D000704700BFC60C0020024A137823EA00003D
:1097E00010707047C60C0020014B00221A707047A1
:1097F000C60C0020024A137818431070704700BF4F
:10980000C70C0020024A137823EA0000107070474A
:10981000C70C0020014B00221A707047C70C0020B3
:10982000014B1878704700BFC50C0020704708B581
:10983000FFF7FCFF08BD000008B5064B5B785B072F
:1098400006D5054B1978814202D01870FFF7EFFF5B
:1098500008BD00BFD82F0020C50C002008B5044B60
:109860001A781AB100201870FFF7E1FF08BD00BF99
:10987000C50C002010B5124B12491B780978124C08
:109880000B43124920680978037031B10B43037010
:1098900001F0EAFA08B1FFF7E1FF24680C49082259
:1098A0002046FEF7DBFD48B1214608220848FEF7B6
:1098B00005FE2046BDE8104001F0AEBA10BD00BF65
:1098C000C60C0020C70C0020000C0020C50C002096
:1098D000BC0C0020704708B5FFF7FCFF08BD000076
:1098E0000A4A5278520710B50CD5094C41EAC0011A
:1098F0002170FFF78DFB94F90000C0F3C700FFF75C
:10990000EAFF10BDBDE81040FFF782BBD82F002052
:10991000C40C002008B5034B00201870FFF7DBFFD4
:1099200008BD00BFC40C002008B50C4A92F90030F5
:1099300023EA000040B2107042070ED1DBB283422E
:109940000BD0074B5B785B0707D5C0F3C700FFF769
:109950006BFBBDE80840FFF7DDBF08BDC40C00206D
:10996000D82F0020094A08B55378C3F380018142FB
:109970000AD060F382035370108800F041F802208F
:10998000BDE80840FFF7D0BF08BD00BFD82F0020BA
:10999000044B5878C0F3800080F0010000F0010013
:1099A000FFF7E0BFD82F00200120FFF7DBBF00202A
:1099B000FFF7D8BF08B500F0B9FE4FF6FF710020E1
:1099C000BDE8084000F008BD08B5002000F0B7FC75
:1099D0004FF6E863C31A5842584108BD022000F010
:1099E0009FBC032000F09CBC10B5042000F098FC44
:1099F0000446222000F094FC44EA002080B210BD0E
:109A000010B5C1B20446042000F0D8FC210A22207F
:109A1000BDE8104000F0D2BC01460F2000F0EABCC7
:109A20000146132000F0E6BC0020FFF7F9BF08B59F
:109A30000020FFF7F1FFFFF7F7FF08BD10B500F0BA
:109A400075FE4FF6E861002000F0C6FC0021022000
:109A500000F0B4FC00210320002400F0AFFC1A4BFE
:109A6000214604201C8000F0A9FC0421222000F0E3
:109A7000A5FC2146052000F0A1FC2146062000F0AF
:109A80009DFCFF21072000F099FC2146082000F0F2
:109A9000B1FC21460D2000F091FC2146182000F079
:109AA000A9FC2146172000F089FC21461C2000F06B
:109AB000A1FC2146202000F08FFC2146182000F058
:109AC00099FCFFF7B4FF10BD2E0C0020FFF7B6BFC6
:109AD00001460E2000F072BC0A4A002330B502EBAA
:109AE00000120124184612F813503DB141FA03F553
:109AF000ED0742BF04FA03F52843C0B20133082B37
:109B0000F1D130BDA8DA000808B501F073FA024BB4
:109B10001860024B186008BDC80C0020CC0C002057
:109B20007047704708B5FFF7FCFF08BD704708B5E0
:109B3000FFF7FCFF08BD000008B5054800F068FA13
:109B400000F0F2FDFFF7ECFFFFF7ECFF08BD00BFF0
:109B500009A000080120704708B5FFF7FBFF08BD0A
:109B60007047704708B5FFF7FBFFFFF7FAFF08BD26
:109B700008B500F06FFABDE80840FEF7B5BE08B5BD
:109B800001F036FA00F034FBFFF7F2FFFFF7CFFFEA
:109B900008BD00002DE9F04F87B0494F00F042FBAF
:109BA0003E46002420460134E4B216F8015B00F082
:109BB0007DFA0E2C4FD08542F4D0424B1B789B0788
:109BC00001D500F079FAFFF7C7FF002600900DF1EC
:109BD000080A5FFA86F8404600F068FA17F8019B19
:109BE0004845834666D001464046FFF775FF421E52
:109BF000024012F0FF0F054606D00024E2B24245B3
:109C00004AD101340E2CF9D1002401258BEA09092F
:109C100015EA090F16D0009BA3B11BEA050F14BF6C
:109C2000012200228DF808408DF809808DF80A2065
:109C300001F018FA40F00100ADF80C009AE80300BA
:109C4000FEF790FE0134E4B26D00082CEDB2DFD1D6
:109C500007F801BC2EE08542AFD11B4C01F002FA9F
:109C600023888342054612D04FF6FF73ADF81030BB
:109C700000238DF8123001F0F5F940F00100ADF845
:109C8000140006AB13E90300FEF76CFE258007B055
:109C9000BDE8F04FFEF750BE1046019200F006FA04
:109CA000019A01461046FFF717FF2840C0B2421E36
:109CB0000242A6D001360E2E8BD1FFF725FFE6E734
:109CC000D20C0020E00C0020D00C002010B500F0D9
:109CD000BDF8B0F5A64F044623D2B0F5A44F6AD222
:109CE000B0F5005F12D2B0F5807F5CD2A42806D810
:109CF000042802D2012818BF0024204610BDA0F17C
:109D0000E0039BB2082B28BF0024F6E7B0F5A24F72
:109D10004BD2B0F5A04F3BD2B0F5804F33D20024E8
:109D2000EBE7B0F5AC4F10D2B0F5AA4FC0B253D2AA
:109D3000B4F5A84F4BD28308012400F003008440FF
:109D400044EA431444F40A442DE0B0F5B44F0AD277
:109D5000B0F5B24F48D2B0F5B04FE0D34AF2F000C0
:109D600040EA04241FE0A0F5C0439BB2B3F5005FB6
:109D7000D5D2C0F3042000F0F1F8000200F4F8504E
:109D8000E4B204432DE0C0F30B0444F42044B4E7F0
:109D9000C4B2A208012304F0030403FA04F444EA61
:109DA000421444F40D44A4B2A7E7C4B24AF2F1004D
:109DB00040EA0424A1E7C4B2A208012304F003048A
:109DC00003FA04F444EA421444F40C44EBE74AF284
:109DD000F40444EA002490E700F0C0F8040204F41C
:109DE000F85444F4005488E700F00F0000F0B6F88F
:109DF000C4F3031440EA042444F41044D3E70000FD
:109E000082B0ADF80410C1F307210D290DD89DF8DB
:109E10000430072B09D80E2202FB001003EBC0030D
:109E2000034A32F8130002B070470020FBE700BF7E
:109E3000A8DA000807B5ADF804100199FFF7E0FFB4
:109E400003B05DF804EBFFF741BF0000822825D086
:109E50000CD8312867D004D829285AD02A2869D0AC
:109E60007047352850D0392818D07047E32833D0B0
:109E700004D8E0281CD0E22829D07047E62835D045
:109E8000E72838D0E42835D1334B5A78910731D5BB
:109E90001B7813F0100F08BFE72015E02E4B1A783F
:109EA000920752D15B7813F0080F18BF2920704732
:109EB000294A1378D90744D4527812F0010F19D0E7
:109EC00013F0100F08BFE32018BF00207047224B8B
:109ED0001B7813F0040FF2E71F4A1378590732D4A6
:109EE0005278D20731D413F0100FEDE71A4B1B78DC
:109EF0001A07CED47047184A1378190727D4527816
:109F00009107F0D5E4207047134B1B7813F0200F16
:109F1000CBE7114B1A7892061BD45B7813F0080F2D
:109F200018BF392070470C4B1B7813F0400F18BF37
:109F30002A207047084B1B7813F0400F18BF3120C0
:109F4000704739207047E2207047E0207047E620D4
:109F500070473520CEE700BFD82F0020294B1A7854
:109F6000510707D500F01801082927D100F0F700A4
:109F700040F00400110707D500F01801182926D178
:109F800000F0E70040F014005B78D90707D500F037
:109F90001801082924D100F0F70040F001009907CA
:109FA00007D500F01803182B23D100F0E70040F08C
:109FB0001100D30648BF00F0E700704700F014011D
:109FC000042904BF00F0FB0040F00800D2E700F0D5
:109FD0001401142904BF00F0EB0040F01800D3E78F
:109FE00000F01101012904BF00F0FE0040F008005C
:109FF000D5E700F01103112B04BF00F0EE0040F094
:10A000001800D6E7D82F00200020704700207047A6
:10A01000014B1860704700BF040C0020FFF7CABC5A
:10A0200008B500F0FFF84FF47A7001F0BAFD00F0C7
:10A03000F9F8092000F03AF8C30905D0FFF7EEFF60
:10A04000BDE8084001F032B808BD08B5FFF7E8FFE9
:10A0500008BD000008B5FFF7B7FC08B9FFF736FDEB
:10A06000FFF7BCFC094B1870FFF7BEFC084B1880CB
:10A07000FFF7EBFFFFF7B5FC80B2FEF794FF054B4F
:10A080001888BDE80840FEF7A9BF00BFE00C00201B
:10A09000D82F0020300C002008B5FEF70BFB08BDC0
:10A0A000704708B5FFF7FCFF08BD0000014B185CC6
:10A0B000704700BFE82F0020704740F6D81001F02D
:10A0C00021BB00BF00BF00BF00BF00BF00BF00BF7B
:10A0D00000BF00BF00BF00BF00BF00BF00BF00BF88
:10A0E00000BF00BF00BF00BF00BF00BF704708B582
:10A0F000FFF7E3FF08BD08B5302383F31188012182
:10A1000000F00F039940202220F00F0002F0EFFD35
:10A11000002383F3118808BD38B50C4D0E2455F883
:10A12000040B421C01D0FFF7E6FF013C14F0FF04D2
:10A13000F5D1074D082455F8040B431C01D0FFF757
:10A14000DAFF013C14F0FF04F5D138BD88DC0008CB
:10A1500068DC00082DE9F843234B0E4653F8211024
:10A160004C1C074698463BD0302383F311880125C9
:10A1700021F00F0901F00F0105FA01F421462A46EA
:10A180004846A4B202F0B3FDA9F81A40002484F3B3
:10A190001188FFF796FF1549082351F8042B501C2E
:10A1A00020D022F00F0002F00F02006920FA02F224
:10A1B000D20717D46AB2013B14436D0013F0FF03BA
:10A1C000E4B2EDB2E9D158F82600431C01D0FFF704
:10A1D00092FF211C18BF01213046FFF788FFBC55B4
:10A1E000BDE8F8830022E6E788DC000868DC0008A8
:10A1F00010B50E24FFF790FF224600210748FEF716
:10A20000F7F9224600210648FEF7F2F9204600F051
:10A2100037F8BDE81040FEF7B8BA00BFE82F0020BD
:10A22000DA2F002030B585B00E2200216846FEF7F7
:10A23000DFF90024E1B268460134FFF78BFF0E2CF2
:10A24000F8D1224669460C48FEF708F9002814BFE9
:10A250000125002504D0224669460748FEF72EF95D
:10A260002B460E220549044800F00CF80446FEF780
:10A270008EFA204605B030BDDA2F0020E82F0020EE
:10A28000704700002DE9F04107460E469046124DFA
:10A290002BB101232B7000F0ADFE104B18602C7811
:10A2A0001CB900242046BDE8F0810C4B186800F072
:10A2B000E5FE0428F5D9424639463046FEF7CEF889
:10A2C00038B1424639463046FEF7F8F800232B7085
:10A2D000E8E70446FAE700BFE10C0020E40C0020A8
:10A2E00008B501F055F9FFF74AFCBDE8084001F058
:10A2F00065B908B501F068F9FFF74CFCBDE8084006
:10A3000001F082B908B500F041FE01F03FF9FFF716
:10A3100013FCFFF7E5FFFFF7ECFFFFF723FCFAE77D
:10A3200007B50023014601220DF107008DF8073023
:10A3300000F0FEF99DF8070003B05DF804FB07B5D7
:10A340000023014602220DF10600ADF8063000F0B0
:10A35000EFF9BDF8060003B05DF804FB07B5042271
:10A36000002301460DEB0200019300F0E1F9019892
:10A3700003B05DF804FB07B501228DF80710014614
:10A380000DF1070000F008FA03B05DF804FB07B513
:10A390000222ADF8061001460DF1060000F0FCF9AE
:10A3A00003B05DF804FB07B50422019101460DEBF3
:10A3B000020000F0F1F903B05DF804FB38B50C467B
:10A3C0000546FFF7ADFFA04205D021462846BDE86F
:10A3D0003840FFF7D0BF38BD38B50C460546FFF70B
:10A3E000AEFFA04205D021462846BDE83840FFF721
:10A3F000CEBF38BD38B50C460546FFF7AFFFA042CB
:10A4000005D021462846BDE83840FFF7CCBF38BD0F
:10A4100038B54FF6FE73034003F1006505F580453E
:10A420004FF6FF712A888A4210D10A495C5AE443E8
:10A43000A4B294420CD000F08FFA2146284600F0D6
:10A440005DFA044600F096FA204638BD0024FBE78A
:10A450000524F9E7E80C002008B5044800F008FAE4
:10A4600000F088FA024B034A1A6008BD0040000859
:10A47000E82C002000600008F8B500F06DFAFFF746
:10A48000EBFF00F069FA0B4E0B4C0C4F052536F82C
:10A49000021B39B1C94389B2204600F02FFA0528C2
:10A4A00018BF05460234BC42F1D100F063FA2846D9
:10A4B000F8BD00BFE80C0020004000080060000864
:10A4C000F8B51C4B1C4FC65A3A68012E9ABF1B4D5B
:10A4D00002230423C3F1006394BF45EA4635803864
:10A4E00003F5004392BFADB280B24FF460459A428B
:10A4F00003D9BDE8F840FFF7BFBF45EA500400F0BC
:10A500002BFA38682146831C3B6000F0F7F9B5F55B
:10A51000604F044609D13868F143831C89B23B601F
:10A5200000F0ECF9052818BF044600F023FA204695
:10A53000F8BD00BFE80C0020E82C00200080FFFFE1
:10A5400038B50D4C0D4B22689A42054603D9BDE83B
:10A550003840FFF791BF00F0FFF9094B2068E95C34
:10A5600041EA0521831C89B2236000F0C7F9044643
:10A5700000F000FA204638BDE82C0020FF7F0008DC
:10A58000E80C00201F4B204A2048F0B51D4632F849
:10A59000021BC943824223F8021BF8D11C4C4FF620
:10A5A000FF7743F6FE761388BB4206D0180409D421
:10A5B000190A6B540232A242F5D9164B4FF40050DF
:10A5C0001A60F0BD03F4C041B1F5C04F0FD1901C2B
:10A5D000A04215D85188C94389B279B106EA43032C
:10A5E00080330246B3F5005FE4D2E952E2E7590452
:10A5F000E0D4C3F3403106EA4303F3E70246D9E768
:10A600000246DAE7E80C002000400008006000087D
:10A61000FF7F0008E82C002008B500F09DF9FFF747
:10A620001BFFBDE80840FFF7ADBF0000B0F5005FBD
:10A6300010B5044614D20C4BC25C8A4212D0C154ED
:10A64000FFF7E6FE68B97F2C04D82046BDE810402D
:10A65000FFF776BF24F00100BDE81040FFF730BFE0
:10A66000072010BD0020FCE7E80C0020B0F5005FDB
:10A67000F8B504460E4634D210F001050DD0C9B22B
:10A68000FFF7D4FF0546601C310A80B2FFF7CEFF0A
:10A69000052818BF05462846F8BD134BC75AB942CE
:10A6A000F9D0E152FFF7B4FE05460028F3D17F2C24
:10A6B00012D8FBB2F2B293420CD02046FFF740FF13
:10A6C0000546360AB6EB172FE5D0601C80B2FFF7BF
:10A6D00037FFDDE70525F4E72046BDE8F840FFF742
:10A6E000EFBE0725D7E700BFE80C0020B0F5005FFC
:10A6F0003ABF024BC05CFF20704700BFE80C00204F
:10A7000041F6FE7398420AD8064BC20741BF5A1C55
:10A71000825CC05C40EA022058BFC05A70474FF6C6
:10A72000FF707047E80C0020FFF72CBFFFF774BFE5
:10A730002DE9F843044615464AB1CB0707D588B240
:10A740004A1CFFF7D3FF04F8010B013D11466F08C7
:10A7500004F00109A61C01EB470841450BD16FF03D
:10A76000010202FB075222B188B2FFF7BFFF04F8D3
:10A770001700BDE8F88388B2FFF7C2FFB9F1000FF8
:10A7800004D126F8020C02310236E6E706F8020C84
:10A79000000A06F8010CF6E72DE9F04705460C46DD
:10A7A00016464AB1CB0707D54F1CA0B215F8011BBE
:10A7B000FFF73CFF013E3C464FEA560805F0010A10
:10A7C000AF1C04EB48094C450BD16FF0010202FBB2
:10A7D0000862C2B115F81810A0B2BDE8F047FFF743
:10A7E00025BFBAF1000F07D137F8021CA0B2FFF75E
:10A7F0003DFF02340237E6E717F8013C17F8021C68
:10A8000041EA0321F2E7BDE8F0870000094BDA686E
:10A81000D2030AD4DA6812F0E00F08D1DB6813F033
:10A82000100F0CBF05200320704701207047022045
:10A83000704700BF003C024037B50146FFF7E6FF16
:10A840000024FF2501280FD111B9062003B030BD27
:10A8500001940195019B1BB9FFF7D8FF0139F1E77E
:10A86000019B013B0193F5E7002908BF0620EDE7B6
:10A8700038B5054640F6FF70FFF7DEFF052826D104
:10A880001A4C236923F0F8032361194B9D421FD80A
:10A89000184B9D4226D2B5F1006F34BF0725002525
:10A8A000236943EAC50545F002052561236943F4A0
:10A8B0008033236140F6FF70FFF7BEFF06281EBFFE
:10A8C000236923F0FA032361084BF122DA6038BDD3
:10A8D000094B9D4208D903F580439D428CBF072553
:10A8E0000325DDE70125DBE70225D9E7003C02402F
:10A8F000FF7F000800400008FFBF0008144B00F174
:10A9000078429A4270B505460E461ED81F20FFF7C2
:10A9100093FF052818D10F4C236923F4407323615A
:10A92000236943F480732361236943F001032361A6
:10A930001F202E80FFF780FF06281EBF236923F00B
:10A9400001032361F123E36070BD0720FCE700BF32
:10A95000FEFF0700003C0240044B1A69002ABFBFFB
:10A96000034A5A6002F188325A607047003C024044
:10A9700023016745024A136943F00043136170479E
:10A98000003C024038B505468878002800F0608118
:10A9900045F603539D4209D845F6FB439D420ED22E
:10A9A000A5F5B843023B132B09D938BD45F6A6538C
:10A9B0009D4204D02CD845F662539D42F5D1FFF755
:10A9C00013F8A44C45F612439D42208000F01381F9
:10A9D00053D845F609439D4200F0E18028D845F65A
:10A9E00005439D4200F0C78017D845F603439D42BA
:10A9F00000F0B98000F2BB8045F602439D4200F0B2
:10AA0000A8802088FEF7FCFFFEF764FA0020CCE760
:10AA1000A5F5BB432E3B022BC6E745F607439D42F7
:10AA200000F0B98040F2B380237843F0400393E014
:10AA300045F60D439D4200F0C6800AD845F60B430B
:10AA40009D4200F0B88040F2B08023786FF341035C
:10AA500082E045F60F439D4200F0C580C0F0B7800C
:10AA600045F610439D4200F0C28045F611439D42D9
:10AA7000C7D123786FF386136EE0B5F5BA4F00F0B7
:10AA8000C4802FD845F6FB439D4278D015D845F6B3
:10AA900014439D4200F0C680C0F0B38045F61543D4
:10AAA0009D42AED12378C3F3800282F00102D2B27C
:10AAB00062F3820362F3C3034EE045F6FD439D4219
:10AAC00000F089805FD345F6FE439D4200F0878009
:10AAD00045F6FF439D4294D1637823F0030343F08E
:10AAE00003033EE045F662539D4200F0A9800DD875
:10AAF00045F602539D4200F09F80C0F08A8045F6E3
:10AB000003539D427FF47DAF002096E045F6AE539F
:10AB10009D4223D00CD845F6A6539D427FF471AFD9
:10AB20002378C3F3000282F0010262F3000313E012
:10AB300045F6AF539D4242D045F6B0539D427FF457
:10AB400060AF6378C3F3C00282F0010262F3C30313
:10AB500007E0237843F00103237052E7637843F062
:10AB6000080363704DE7237843F00203F4E723788A
:10AB700043F00403F0E7237843F00803ECE763783D
:10AB800043F00103EDE7637843F00203E9E723783C
:10AB900043F01003E0E7237843F02003DCE7FEF7FF
:10ABA00099F9237843F08003D6E7237823F00C0348
:10ABB00043F00C03D0E723786FF30003CCE763780E
:10ABC0006FF3C303CDE723786FF38203C4E72378E1
:10ABD0006FF3C303C0E763786FF30003C1E76378E3
:10ABE0006FF34103BDE723786FF30413B4E72378D1
:10ABF0006FF34513B0E7FEF76DF923786FF3C713D2
:10AC0000AAE7237823F00C03A6E7637823F0030375
:10AC1000A7E76378DA4302F0010262F3000362F30C
:10AC200041039EE7FEF756F92378C3F3C01282F082
:10AC3000010262F3C7138FE70120FEF749FFE0E648
:10AC40002378C3F3001282F0010262F3041383E756
:10AC50000120AAE6D82F002045F61643984210B5E9
:10AC60000C461BD1FEF7AAFDA2780D4B72B100F085
:10AC7000AA00002815BF01220022352029201A70C1
:10AC8000FEF76CFDFEF7F6FD002010BD1B78002BD3
:10AC900014BF35202920FEF769FDF3E70120F4E712
:10ACA000EC2C0020F8B5144682789DF818701D46EB
:10ACB000284B92B11C7000F0D5F9274B188004F195
:10ACC0002003DBB2072B44D804F007040120A04086
:10ACD000C0B2BDE8F840FDF7E1BE1E78A6422ED115
:10ACE0001D4B188800F0C3F9C72828D8AE4205F1DB
:10ACF000200415D006F12003DBB2072B06D806F09E
:10AD000007060120B040C0B2FDF7D1FEE3B2072B29
:10AD100006D805F0070301209840C0B2FDF7BEFE3B
:10AD20003846E4B2FDF7B2FE072C12D805F007054D
:10AD30000120A840C0B2BDE8F840FDF7B8BE04F15C
:10AD40002003DBB2072B04D804F007040120A04045
:10AD5000F0E7F8BDED2C0020EE2C002013B545F6F1
:10AD6000F44304469C42084626D011D845F6D94300
:10AD70009C421CD045F6DA439C4237D045F6D84376
:10AD80009C420ED126230093E1231A4621461EE061
:10AD900045F6F6439C421FD013D345F6F7439C4239
:10ADA0001FD0807830B3144B00221A7012E0272392
:10ADB0000093E523E522E9E726230093E022E1233F
:10ADC000E4E727230093E422E52345F6F541FFF766
:10ADD00069FF002002B010BD26230093E222E12388
:10ADE000D4E727230093E622E523CFE72823009327
:10ADF0000123DFE70120EDE7ED2C0020014B186077
:10AE0000704700BFF02C0020024B186808B103689F
:10AE100018477047F02C0020024B1B680BB15B6891
:10AE200018477047F02C0020054B1988814205D047
:10AE30001880044B1B680BB1DB681847704700BFD4
:10AE4000F62C0020F02C0020054B1988814205D0FB
:10AE50001880044B1B680BB11B691847704700BF73
:10AE6000F42C0020F02C0020821C00F108030020AC
:10AE70009A4200D1704712F8011B0029F8D0013026
:10AE8000C0B2F5E739B1831C083013F8012B8A42B0
:10AE900003D08342F9D1002070470120704730B5BC
:10AEA0004FF0FF33851C002215F8014B8C420ED069
:10AEB000B3F1FF3F02D1002C08BF13460132D4B2D8
:10AEC000062C62B2F0D15A1C01D01844817030BDFA
:10AED00010B5831C0022083013F8014B8C4208BFC8
:10AEE00003F8012C8342F7D110BDFFF7D8BFFFF75D
:10AEF000EFBF062200210230FDF77ABB704708B58C
:10AF0000FFF7FCFF08BD000008B50028034B14BF85
:10AF1000022001201870FFF7F2FF08BDF82C002076
:10AF200008B5034B03201870FFF7E9FF08BD00BF09
:10AF3000F82C0020FFF7E8BF08B5034B012018707C
:10AF4000FFF7DDFF08BD00BFF82C0020FFF7F4BFBE
:10AF500070477047704708B5FFF7FCFF08BD7047A2
:10AF600008B5FFF7FCFF08BD10B5FFF7F1FFFFF7CD
:10AF700059F9FFF7EEFF0024E0B2FFF797F818B990
:10AF800001340E2CF8D110BD0120FCE708B500F00B
:10AF9000D3FEBDE8084000F09BBB08B5FDF75EFCA2
:10AFA00040F2A460BDE8084000F0FBBD08B5FEF724
:10AFB0001BFCFEF72FFCFEF7E1FBBDE80840FDF7A8
:10AFC00054BC000008B5302383F3118800F0CCFE98
:10AFD000044B054A186000231360044A136083F38E
:10AFE000118808BD042D0020FC2C0020002D00201D
:10AFF000FFF7E8BFD0B5302383F31188134C00F07E
:10B00000B3FE2368124AC11A1068884211480AD94F
:10B01000A3F58333E03B236004680F4B01F58331D4
:10B020002344E031036011600468002383F3118836
:10B030000A4E0B4A4FF47A700027E0FB01670023A9
:10B0400030463946FDF788F82044D0BD042D002055
:10B05000FC2C0020002D002088598F029F860100C3
:10B06000A086010008B5FFF7C5FF80B208BD10B586
:10B070000446FFF7BFFF001B80B210BD10B50446A9
:10B08000FFF7B8FF001B10BDBFF34F8F0549064BFC
:10B09000CA6802F4E0621343CB60BFF34F8F00BF76
:10B0A000FDE700BF00ED00E00400FA0508B5024B23
:10B0B000024A1A60FFF7E8FFFCFF0020EFBEADDE9A
:10B0C00008B5FFF7E1FF00000A4A08B552F8041C72
:10B0D000094B99420DD1002342F8043C83F31488B4
:10B0E000064B1B6883F3088862B6054B1B689847BC
:10B0F000FEE708BD00000120EFBEADDE0000FF1F2F
:10B100000400FF1F10B5084A084C117824784B1C26
:10B1100003F00F039C421DBF054C137060540020C8
:10B1200018BF012010BD00BF0630002007300020EE
:10B13000F62F0020302383F31188002383F3118836
:10B140007047704738B5084C2546002045F8040F75
:10B1500042EA01202A46194600F058FA2060606849
:10B16000002818BF204638BD082D002090F84A104E
:10B17000054B02291A7804D1012A01D0062A02D1EE
:10B180005A78024B1A7070474C2D0020402D002039
:10B1900008B505291DD8DFE801F0181C0318181A96
:10B1A000302383F311880B4A012101F016F80023A4
:10B1B00083F31188084B1B7813B10520FFF7A2FF1A
:10B1C0000220BDE80840FFF79DBF0846F9E70520CB
:10B1D000F7E708BDC0DC0008492D002070B5044623
:10B1E000064803680D460BB100F02AFB2B462146AA
:10B1F000034A0248BDE8704000F018BB282D00202B
:10B2000005B2000870B530230E4683F311880B7821
:10B21000042B03D0002383F3118870BD134C2278D4
:10B22000002AF7D0124B1B78002BF3D00B899B0719
:10B2300005D408230F4A0121304601F020F80E4BB7
:10B24000247840F2E730A4FB034520184FF00001BA
:10B250004FF47A724FF0000345EB0101FCF77CFFDD
:10B2600031468000FFF7BAFFD4E700BF242D00204D
:10B27000080C0020412D0020A0860100F8B590F8B0
:10B28000443003F07F02212A04466CD113F080057C
:10B2900025D0002D67D090F84500022819D003284A
:10B2A0000ED001285FD194F848302BB93D4AA263F3
:10B2B0000822E2632364F8BD0023A363E363F9E794
:10B2C000B4F84830002B4ED1374AA2630120E06326
:10B2D000F0E7364BA3630120E0630023EAE790F830
:10B2E00045300A2B3AD00B2B0DD0092B3BD190F8CF
:10B2F0004830002B37D12E4B83630223C3632D4B81
:10B3000023640120D7E7B0F848501DBB90F84630C1
:10B31000254A003318BF01231370244B1A78CAB191
:10B32000302282F311881E78234B40F2E730A6FBCF
:10B33000036730184FF000014FF47A724FF00003AA
:10B3400047EB0101FCF708FF21468000FFF746FFAD
:10B3500085F311880023A363E363D1E7134B90F8CF
:10B3600047201A70DBE7B4F8442040F281639A4228
:10B3700001D000209FE794F84920616894F8483094
:10B380004D6894F8471043EA0223204694F846207B
:10B39000A8470028EDD04368A3630368E363002354
:10B3A000AEE700BF412D0020080C0020242D002016
:10B3B0004C2D00206DB10008A086010008B51022B8
:10B3C00000210448FDF714F9034A00231370034ACF
:10B3D000137008BDF62F0020063000200730002033
:10B3E000F8B5294D294E2C4630782B78284F00216E
:10B3F000984230D101B12070F8BD2370254B012255
:10B400001A70254B93F84F10081C18BF0120FFF746
:10B4100087FDE9E723701F4B00221A70FFF7C6FD76
:10B420001D4B93F84F10081C18BF0120FFF782FD39
:10B43000DAE72370184B93F84F10081C18BF01204F
:10B44000FFF762FDD0E7002123700846F8E723707C
:10B45000FFF772FDC8E71A460133BA5C03F00F0329
:10B460000121052AC4D80FF2080C5CF822F000BFB5
:10B470004FB40008F1B3000833B4000847B4000823
:10B48000FBB3000815B40008073000200630002088
:10B49000F62F0020492D002078300020426D936B5C
:10B4A00023F4002310B59363044641F2883000F082
:10B4B00078FB0649204600F053FE626D936B43F41F
:10B4C00000239363024B00221A6010BDE4DC0008E5
:10B4D000282D002010B5044600F055FE626D074986
:10B4E000936B23F400239363204600F039FE626DD2
:10B4F000936B43F40023936310BD00BFE4DC0008AA
:10B50000014B1878704700BF402D002038B5054624
:10B51000302383F31188104C2378042B0DD1238919
:10B520009B070ED42A4601210B48082300F0A7FEF2
:10B53000082229460948FCF7C1FF002383F311883C
:10B5400038BD236958694FF0FF310C3000F036FBED
:10B550002378042BE6D0F0E778300020412D00203E
:10B560007047704770477047FFF7AEBD7047704730
:10B5700008B5FFF7F9FF02F04FFAFFF7F7FF08BD34
:10B5800008B502F08FFAFFF7F2FF08BDFFF7DEBC47
:10B5900008B5FFF713FF0648FFF780FF054B064A83
:10B5A0001A6041F28830BDE8084000F0FABA00BFE6
:10B5B00078300020502D00200C0C0020014B186822
:10B5C000FFF71CBC502D002038B50E4CFFF708FFCC
:10B5D0002378052B14D125462378052B03D0BDE80D
:10B5E0003840FEF747B9FFF7D8FCFFF7BDFC00284D
:10B5F000F2D0284600F055FE2846FFF76BFFEBE738
:10B6000038BD00BF7830002070470000030A032BCC
:10B6100010D006D8012B1CD0022B1DD000200346D1
:10B6200010E0212B10D0222BF8D10029F6D1402098
:10B630000B4B07E0C0B20228F0D80A4B0A4953F876
:10B640002030085C136070470029E7D10920074BC0
:10B65000F8E71220064BF5E72220064BF2E700BF81
:10B6600037DD0008F4DC000800DD000815DD000807
:10B6700025DD000803DD0008024B034A1A60034A77
:10B680005A60704708300020A832002000000120D6
:10B6900070477047FEE700000C4B70B5082000248F
:10B6A00093E826000439954207D8D968914209D811
:10B6B000013803F11003F3D170BD51F8046F42F863
:10B6C000046BF0E742F8044BF0E700BFB0DD000880
:10B6D00038B5084C0123002523706560FFF7CCFFC7
:10B6E0000549064800F0D8F90223237085F3118834
:10B6F00038BD00BF1030002030DE000818300020B8
:10B7000000F0D4B8034B59685A68521A9042FBD8DB
:10B71000704700BF001000E0024AD36A1843D062AD
:10B72000704700BF1830002010B503689C68A24223
:10B730000CD85C688A600B604C6021605960996825
:10B740008A1A9A604FF0FF33836010BD121B1B688A
:10B75000ECE7022938BF022170B504460E460225E7
:10B76000A01900F017FB00F0FFFA041BA64203D853
:10B7700001352E460446F3E7022D04D90120BDE829
:10B780007040FFF7C9BF70BD124B70B5D9610E464E
:10B7900003F11001416019698260022A38BF022258
:10B7A000016048601861B018144600F0E3FA022501
:10B7B00000F0DAFA801BA04204D30135701900F0C2
:10B7C000E9FAF5E7022D04D90120BDE87040FFF742
:10B7D000A3BF70BD18300020F8B50D46064600F036
:10B7E000C3FA10490A4652F8107F974206D12A46FA
:10B7F00001463046BDE8F840FFF7C6BFC969431AA5
:10B80000EB1838BF1C46BB6828BF2C46A34202D9A0
:10B810002946FFF79EFF224631460348BDE8F8401F
:10B82000FFF782BF183000202830002010B40361D9
:10B830000023C26043615DF8044BFFF7CDBF0000F9
:10B8400010B5194C236998420DD00368426881688D
:10B8500013605A609A680A449A60002303604FF0AC
:10B86000FF33A36110BD2346026843F8102F5360D5
:10B870000022026022699A4203D1BDE8104000F024
:10B8800083BA936881680B44936000F06DFA226973
:10B89000E3699268C41AA242E4D91344191ABDE8B4
:10B8A0001040FFF756BF00BF183000202DE9F84FB9
:10B8B0002A4EB14606F11008294F356900F054FAB6
:10B8C000F469AA68031B9A423BD82B6814446A683F
:10B8D000F46113605A6000232B603269BA429A46C1
:10B8E00001D100F051FA8AF31188EB6829692846E2
:10B8F0009847302383F311886B69002BDDD000F06B
:10B9000033FA6A69A0EB040B5A4582460DD2022035
:10B91000FFF702FF0022D9F81030BB4208D1514690
:10B920002846BDE8F84FFFF72FBF121A2244F2E76E
:10B9300012EB0B0B38BF5A4629464046FFF7F4FE80
:10B94000BAE73369BB4207D01444211AF061A960F9
:10B95000BDE8F84FFFF7FDBEBDE8F88F18300020B6
:10B960002830002000230375826803691B689968EA
:10B970009142FBD25A680360426010605860704781
:10B9800000230375826803691B6899689142FBD89C
:10B990005A680360426010605860704708B53023F1
:10B9A00083F311880A7D0023052A06D8DFE802F018
:10B9B0000C050503130F8A6913604FF0FF338B6189
:10B9C0000846FFF7CFFF002383F3118808BD8A697B
:10B9D0009368013393604A680B6813605A60ECE720
:10B9E000FFF7C0BF054BD9680875186802681A6070
:10B9F000536001220275D860FCF794BB1830002018
:10BA000030B50C4BDC684B1C87B005460FD0234685
:10BA1000094A6846FFF70AFF2846FFF7E3FF009B45
:10BA200013B16846FFF70CFFA06907B030BDFFF700
:10BA3000D9FFF9E7183000209DB90008044B1A68B7
:10BA4000DB6890689B68984294BF00200120704793
:10BA500018300020084B10B51C68D86822681A609E
:10BA6000536001222275DC60FFF78AFF0146204601
:10BA7000BDE81040FCF756BB18300020044B1A6894
:10BA8000DB6892689B689A4201D9FFF7E3BF704771
:10BA900018300020FEE7000070B504460025194B61
:10BAA000856286B021630E46586000F0F7F804F115
:10BAB0001003236163614FF0FF33A361246064606E
:10BAC000A560E562E56100F04FF90021C4E90801D5
:10BAD000802304F13401E5650B4A204600F01AF892
:10BAE0000123E060094A0375009272680192B2680E
:10BAF000CDE90223064B6846CDE9043500F03CF859
:10BB000006B070BD103000203FDE000844DE0008A3
:10BB100095BA00088B6002224B62002308618A827A
:10BB20000B62CB61084670478368C168A3F18C0241
:10BB300043F81C2C026943F84C2C426943F8482C0A
:10BB40000B4A43F82C2C022203F8142C094843F822
:10BB5000180C002243F8201C03F8132C43F8041C93
:10BB600043F8082C43F80C2CA3F12800704700BFC1
:10BB70003D8100081830002008B5FFF7D5FFBDE86B
:10BB80000840FFF72DBF0000024BDB6898610F20D3
:10BB9000FFF728BF18300020302383F31188FFF708
:10BBA000F3BF08B50146302383F311880820FFF75F
:10BBB00027FF002383F3118808BD0000054BDB68D5
:10BBC00021B1036098610320FFF71ABF4FF0FF30E7
:10BBD000704700BF1830002003682BB100220260BC
:10BBE00099611846FFF7FCBE70470000064BDB6802
:10BBF00039B1426818605A60136043600420FFF74F
:10BC0000FFBE4FF0FF3070471830002003689842A5
:10BC100006D01A680260506099611846FFF7E0BECE
:10BC2000704700230060406083607047C369194318
:10BC3000037DC1610A2B03D18369194205D1704785
:10BC40000B2B06D183698B4303D100238361FFF75C
:10BC5000C7BE704770B5046806460D46B44200D1B1
:10BC600070BDE3682B43E36015B123691D4203D027
:10BC7000A1686068FFF7DAFF2468EFE7EFF3098354
:10BC800005494A6822F001024A60683383F3098853
:10BC9000002383F31188704730EF00E0302080F3F9
:10BCA000118862B60B4B0C4AD96821F4E061090493
:10BCB000090C0A430949DA60CA6842F08072CA6016
:10BCC00007490A6842F001020A602022DA7783F805
:10BCD0002200704700ED00E00003FA05F0ED00E0FF
:10BCE000001000E010B5302383F311880E4B5B6821
:10BCF00013F4006314D0F1EE103AEFF30984683CBA
:10BD00004FF08073E361094BDB68236684F3098895
:10BD1000FFF794FE10B1064BA36110BD054BFBE786
:10BD200083F31188F9E700BF00ED00E030EF00E099
:10BD30004F8100085281000808B500F097FD00F01F
:10BD4000D5FF00F089F900F08EF900F0B7F900F0A6
:10BD5000EFF900F0F7F9FFF713FCBDE8084000F039
:10BD600000B801F009BD0000014B586A704700BFE0
:10BD7000000C0040034B002258631A610222DA6073
:10BD8000704700BF000C0040014B0022DA60704792
:10BD9000000C0040014B5863704700BF000C00408E
:10BDA000F8B5154682680669AA420B46816938BF14
:10BDB0008568761AB542044607D218462A46FCF72B
:10BDC0007DFBA3692B44A3610DE011D932461846CF
:10BDD000FCF774FBAF1B3A46E1683044FCF76EFB9E
:10BDE000E2683A44A261A3685B1BA3602846F8BDE1
:10BDF00018462A46FCF762FBE368E4E783682DE90E
:10BE0000F041044693421546266938BF856840696B
:10BE1000361AB5420F4606D22A46FCF74FFB636935
:10BE20002B4463610DE012D93246A5EB0608FCF7FE
:10BE300045FB4246B919E068FCF740FBE268424422
:10BE40006261A3685B1BA3602846BDE8F0812A46B7
:10BE5000FCF734FBE368E4E710B50A440024C3614F
:10BE6000029B006040608460C16081614161026149
:10BE7000036210BD08B582694369934201D18268AB
:10BE800082B98268013282605A1C4261197003696A
:10BE900042699A4224BFC36843610021FFF7B6FE9E
:10BEA000002008BD4FF0FF30FBE770B5302304469B
:10BEB0000E4683F31188A568A5B1A368A269013B6A
:10BEC000A360531CA36115782269934224BFE368E1
:10BED000A361E3690BB120469847002383F31188DF
:10BEE000284607E031462046FFF780FE0028E2DAC8
:10BEF00085F3118870BD2DE9F74F05460F46904632
:10BF00009A46D0F81C90302686F311884FF0000B2B
:10BF1000144664B1224639462846FFF741FF0346DE
:10BF200068B951462846FFF761FE0028F1D000238A
:10BF300083F31188A8EB040003B0BDE8F08FB9F1DA
:10BF4000000F03D001902846C847019B8BF311884E
:10BF5000E41A1F4486F31188DBE7C1608161416107
:10BF6000C3611144009B0060406082600161036214
:10BF70007047F8B504460E461746302383F3118800
:10BF8000A568A5B1A368013BA36063695A1C6261FF
:10BF90001E70236962699A4224BFE3686361E369A2
:10BFA0000BB120469847002080F3118807E03946FE
:10BFB0002046FFF71BFE0028E2DA85F31188F8BD62
:10BFC000836942699A4210B501D182687AB9826860
:10BFD000013282605A1C82611C7803699A4224BF34
:10BFE000C36883610021FFF711FE204610BD4FF0AA
:10BFF000FF30FBE72DE9F74F05460F4690469A467E
:10C00000D0F81C90302686F311884FF0000B1446B0
:10C0100064B1224639462846FFF7F0FE034668B968
:10C0200051462846FFF7E2FD0028F1D0002383F3B4
:10C030001188A8EB040003B0BDE8F08FB9F1000F40
:10C0400003D001902846C847019B8BF31188E41A5E
:10C050001F4486F31188DBE701F0CABB012303709C
:10C0600000234360704701F0F1BB012303700023FC
:10C070004360C360037470470C30FFF73CBF4FF060
:10C08000FF330C30FFF737BF3030FFF7B3BF4FF04F
:10C09000FF333030FFF7AEBF0C30FFF706BF4FF075
:10C0A000FF310C30FFF701BF3030FFF762BF4FF0B8
:10C0B000FF323030FFF75DBF0020704701F00CBC4D
:10C0C00037B5034615460D4A43F8042B4360012358
:10C0D00004460372802200900B4600F154010C309C
:10C0E000FFF7BAFE00942B46802204F1D40104F13C
:10C0F0003000FFF732FF03B030BD00BF4CDE000858
:10C1000038B5436904460D461BB904210844FFF7BE
:10C11000A1FD294604F10C00FFF7ACFE002806DA69
:10C12000201D4FF48061BDE83840FFF793BD38BD56
:10C1300001F00CBB012303700023436083600C30CB
:10C14000FFF76FBD00F07ABE012303700023C361C7
:10C1500083620362C3624362036343608360704728
:10C1600038B50546302383F3118800244160C4604C
:10C1700004614461846100F071FE02232B7084F33A
:10C180001188204638BD70B53023064683F31188E8
:10C19000344600F0C9FE00250123756004F80C3B0D
:10C1A0001C3654F8043B7BB1586920B16FF0010193
:10C1B0000C30FFF711FD54F8043C986920B16FF082
:10C1C00001010C30FFF708FDB44244F8045CE8D1EB
:10C1D000FFF754FC85F3118870BD70B500EB810347
:10C1E00005465069DA600E46144618B11422002143
:10C1F000FCF7FEF9A06918B114220021FCF7F8F948
:10C2000031462846BDE8704000F014BFF8B5836899
:10C2100003F001130446836000F1100500F11C06D1
:10C22000002755F8043B7BB1586920B16FF001013C
:10C230000C30FFF7D1FC55F8043C986920B16FF041
:10C2400001010C30FFF7C8FCB54245F8047CE8D189
:10C250002046BDE8F84000F06BBFF0B400EB81046D
:10C260004789E4680125A4698D403D4345812360E9
:10C270000023A2606360E360F0BC00F081BFF0B413
:10C2800000EB81040789E468012564698D403D4322
:10C29000058123600023A2606360E360F0BC01F0CD
:10C2A00005B80378052B10B5044610D1426DD2F8BD
:10C2B000043843F00103C2F80438C820FFF771FCCA
:10C2C000626DD2F8043823F00103C2F8043810BDBF
:10C2D0002DE9F0410223002504460370C564856002
:10C2E00000F10C0600F11C074FF0300856F8043B33
:10C2F000ABB188F3118856F8043C586920B16FF04F
:10C3000001010C30FFF768FC56F8043C986920B135
:10C310006FF001010C30FFF75FFC85F31188BE421E
:10C3200046F8045CE2D184F83450204600F01EFE4A
:10C3300063681B6823B120460021BDE8F04118471F
:10C34000BDE8F081F8B5037880F85030052303701C
:10C3500043681B6804460BB1042198470026A66079
:10C3600004F10C0530271C3455F8043BABB187F3BE
:10C37000118855F8043C586920B16FF001010C3068
:10C38000FFF72AFC55F8043C986920B16FF00101D1
:10C390000C30FFF721FC86F31188A542E4D1F8BDEB
:10C3A000436890F850201B6802700BB105211847B4
:10C3B0007047000090F8343070B5044613B1002384
:10C3C00080F8343004F14402204600F0D0FE636867
:10C3D0009B68B3B994F8443013F0600539D000215C
:10C3E000204601F095F90021204601F087F96368A5
:10C3F0001B6813B1062120469847062384F8343081
:10C4000070BD204698470028E4D094F84B2094F85B
:10C410004A3043EA0223E26B9A4288BFE36394F90D
:10C420004430E56B002B4FF0300380F20B81002D80
:10C4300000F0FA80092284F8342083F31188002167
:10C44000E36BA26B2046FFF71AFF002383F31188EA
:10C45000D6E794F8452003F07F0343EA022340F235
:10C460000232934200F0CC8025D8022B00F0A0804D
:10C4700009D8002B51D0012BB1D17F4BA3630223EC
:10C48000E36300234EE0B3F5817F00F0A680B3F5AF
:10C49000407F49D0B3F5807FA1D194F84630012B7D
:10C4A0009DD1B4F84C3023F00203A4F84C30A563BE
:10C4B000E5632564A9E740F2016293421DD8B3F514
:10C4C000C06F3BD2B3F5A06F89D1B4F84430B3F557
:10C4D000A06F0ED194F8463084F84E30204600F01C
:10C4E0009DFD63681B6813B1012120469847032313
:10C4F00023700023A363E36314E0B3F5106F33D01C
:10C5000040F602429342B8D0B3F5006F7FF467AFB4
:10C5100004F14F03A363012324E004F14C02A2635E
:10C520000222E263236470E794F84630012B7FF423
:10C5300056AFB4F84C3043F00203B6E794F8492004
:10C54000616894F848304E6894F8471043EA022333
:10C55000204694F84620B04700283FF440AF436897
:10C56000A3630368E363A4E72378042B10D130238B
:10C5700083F311882046FFF749FE85F3118863682D
:10C5800084F84F501B68032121700BB12046984757
:10C5900094F84630002BACD084F84F30042323703D
:10C5A00063681B68002BA4D0022120469847A0E7AF
:10C5B00094F848301D0603F00F0120460AD500F01C
:10C5C000C9FD012804D002287FF409AF2B4B55E7A1
:10C5D0002B4B53E700F0B1FDF3E794F84630002B06
:10C5E0007FF4FDAE94F8483013F00F0181D01A06A5
:10C5F000204602D501F0A0F87BE701F093F878E738
:10C6000094F84630002B7FF4EAAE94F8483013F0EB
:10C610000F013FF46EAF1B06204602D501F078F8FB
:10C6200067E701F06BF864E7142284F8342083F3A1
:10C6300011882B462A4629462046FFF70EFE85F331
:10C640001188DDE65DB1152284F8342083F311886A
:10C650000021E36BA26B2046FFF7FFFDF5E60B22FE
:10C6600084F8342083F311882B462A462946204635
:10C67000FFF705FEE3E700BF78DE000874DE000880
:10C6800076DE000838B590F834300446152B39D8DA
:10C69000DFE803F03E38383838383E38380B29396F
:10C6A00038383838383838383E3E90F84B1090F8E3
:10C6B0004A20C36B42EA0122934214D2C268128A12
:10C6C000B3FBF2F502FB15356DB9302383F3118806
:10C6D0002B462A462946FFF7D2FD85F311880A2307
:10C6E00084F834300EE0142384F83430302383F39C
:10C6F000118800231A4619462046FFF7AEFD002395
:10C7000083F3118838BD036C03B198470023E7E732
:10C71000002100F0FDFF0021204600F0EFFF6368DC
:10C720001B6813B10621204698470623D8E790F8E6
:10C730003420152A38B5044617D80123934040F613
:10C74000416213421ED113F480150FD19B020CD508
:10C750000B2380F83430302383F311882B462A468C
:10C760002946FFF78CFD85F3118838BDC3689B69A6
:10C770005B68002BF9D1036C03B19847002384F860
:10C780003430F2E7002100F0C3FF0021204600F022
:10C79000B5FF63681B6813B106212046984706233E
:10C7A000EDE700F1604300F01F02400903F561432B
:10C7B00009018000C9B200F1604083F8001300F560
:10C7C000614001239340C0F880310360704700F05E
:10C7D0001F0301229A4043099B0003F1604303F5C4
:10C7E000614300F1604000F56140C3F88020C3F868
:10C7F0008021002380F800337047000008B503480B
:10C8000001F082F8BDE80840FFF76CBA443100201F
:10C8100008B5034801F02AF8BDE80840FFF762BAFE
:10C820002431002008B5034800F0F5FFBDE80840BA
:10C83000FFF758BA1431002008B500F0C3FFBDE877
:10C840000840FFF74FBA08B507211C20FFF7A9FFE2
:10C8500007211D20FFF7A5FF07213220FFF7A1FFC9
:10C860000C212520BDE80840FFF79BBF08B5214BF0
:10C870001A6962F01F021A611A6902F01F021A6136
:10C880004FF0FF301A695A69586100215A6959619D
:10C890005A691A6A62F080521A621A6A02F0805269
:10C8A0001A621A6A5A6A58625A6A59625A6A1A6C41
:10C8B00042F080521A641A6E42F080521A661A6E62
:10C8C0000D4A106840F480701060186F00F44070DA
:10C8D000B0F5007F1EBF4FF48030186719675368AA
:10C8E00023F40073536000F0DFF9BDE80840FFF760
:10C8F000AABF00BF0038024000700040354B4FF027
:10C9000080521A64344A4FF4004111601A6842F0B0
:10C9100001021A601A689207FCD59A6822F0030295
:10C920009A602C4B19469A6812F00C02FBD11868D9
:10C9300000F0F90018609A601A6842F480321A60B8
:10C940000B689B03FCD54B6F43F001034B67214BF6
:10C950005A6F9007FCD5214A5A601A6842F08072DB
:10C960001A601D4A53685904FCD51A4B1A68920183
:10C97000FCD51B4A9A600322C3F88C20194B1A6815
:10C98000194B9A42194B21D1194A1168194A9142FF
:10C990001CD14FF481721A60144A136803F00F031C
:10C9A000022BFAD10B4B9A6842F002029A609A6805
:10C9B00002F00C02082AFAD15A6C42F480425A64FE
:10C9C0005A6E42F480425A665B6E704740F20272C1
:10C9D000E1E700BF003802400070004019544107F1
:10C9E00000948838002004E011640020003C0240DC
:10C9F00000ED00E041C20F4108B5074B074A196836
:10CA000001F03D01996053680BB190689847BDE80B
:10CA10000840FFF767B900BF00600240382F0020D0
:10CA200008B5084B1968890901F03D018A019A602F
:10CA3000054AD3680BB110699847BDE80840FFF775
:10CA400051B900BF00600240382F002008B5084BE4
:10CA50001968090C01F03D010A049A60054A5369FE
:10CA60000BB190699847BDE80840FFF73BB900BF9C
:10CA700000600240382F002008B5084B1968890D66
:10CA800001F03D018A059A60054AD3690BB1106A2D
:10CA90009847BDE80840FFF725B900BF0060024095
:10CAA000382F002008B5074B074A596801F03D01AF
:10CAB000D960536A0BB1906A9847BDE80840FFF708
:10CAC00011B900BF00600240382F002008B5084BA4
:10CAD0005968890901F03D018A01DA60054AD36A83
:10CAE0000BB1106B9847BDE80840FFF7FBB800BFDB
:10CAF00000600240382F002008B5084B5968090C27
:10CB000001F03D010A04DA60054A536B0BB1906BEA
:10CB10009847BDE80840FFF7E5B800BF0060024055
:10CB2000382F002008B5084B5968890D01F03D01E8
:10CB30008A05DA60054AD36B0BB1106C9847BDE8E3
:10CB40000840FFF7CFB800BF00600240382F002038
:10CB500008B5074B074A196801F03D019960536C0D
:10CB60000BB1906C9847BDE80840FFF7BBB800BF19
:10CB700000640240382F002008B5084B1968890965
:10CB800001F03D018A019A60054AD36C0BB1106D2A
:10CB90009847BDE80840FFF7A5B800BF0064024011
:10CBA000382F002008B5084B1968090C01F03D0129
:10CBB0000A049A60054A536D0BB1906D9847BDE821
:10CBC0000840FFF78FB800BF00640240382F0020F4
:10CBD00008B5084B1968890D01F03D018A059A6076
:10CBE000054AD36D0BB1106E9847BDE80840FFF7BA
:10CBF00079B800BF00640240382F002008B5074B09
:10CC0000074A596801F03D01D960536E0BB1906E2F
:10CC10009847BDE80840FFF765B800BF00640240D0
:10CC2000382F002008B5084B5968890901F03D01EB
:10CC30008A01DA60054AD36E0BB1106F9847BDE8E0
:10CC40000840FFF74FB800BF00640240382F0020B3
:10CC500008B5084B5968090C01F03D010A04DA6077
:10CC6000054A536F0BB1906F9847BDE80840FFF736
:10CC700039B800BF00640240382F002008B5084BC7
:10CC80005968890D01F03D018A05DA60054AD36FC4
:10CC900013B1D2F880009847BDE80840FFF722B8EA
:10CCA00000640240382F00200D4A30B500230D4C9F
:10CCB00013600C25194605FB03F00059016002EBD7
:10CCC000C3000133102B4160F5D1074A4FF0FF3309
:10CCD0009360D360C2F80834C2F80C3430BD00BF92
:10CCE000382F00207CDE00080060024070472DE9EC
:10CCF000F74FC2F3C31302F00308C2F3800EC2F36E
:10CD0000C10CC2F341170193454600244FF00309BB
:10CD10004FF00F0ACB073DD5019B04F007029200AC
:10CD200003FA02F64FF0010B43680BFA04FB23EA07
:10CD30000B0343EA0E0343606300D0F808B009FA1E
:10CD400003F3DB430BEA030B4BEA0C0BC0F808B010
:10CD5000D0F80CB003EA0B0B4BEA070B0AFA02F20D
:10CD6000B8F1020FC0F80CB06FEA02021CD1072C18
:10CD700095BFD0F820B0D0F824B00BEA02020BEA3D
:10CD8000020295BF3243324302624262026813409C
:10CD90002B430360490819D04FEA4E0E4FEA8C0C22
:10CDA000BF00AD000134B5E7D0F800B003EA0B03D3
:10CDB0002B43072C036095BF036A436A1A401A404D
:10CDC00095BF1643164306624662E3E703B0BDE82B
:10CDD000F08F836D70B5446D9E6800214FF0FF3574
:10CDE0004A01A3180131D3F800090028BEBFD3F8C7
:10CDF000000940F08040C3F80009D3F8000B002878
:10CE0000BEBFD3F8000B40F08040C3F8000BA3185E
:10CE10008E42C3F80859C3F8085BE1D24FF0011302
:10CE2000C4F81C3870BD890141F02001016103691B
:10CE30009B06FCD41220FEF765BC000010B5054C23
:10CE40002046FFF781F94FF0A0436365024BA365CD
:10CE500010BD00BF7830002070DF00080378012B80
:10CE600070B5054650D12A4B446D98421BD1294BD1
:10CE70005A6B42F080025A635A6D42F080025A6542
:10CE80005A6D5A6942F080025A615A6922F0800252
:10CE90005A610E2143205B69FFF783FC1E4BE36060
:10CEA0001E4BC4F800380023C4F8003EC0232360A2
:10CEB0006E6D4FF43413A3633369002BFCDA012346
:10CEC00033610C20FEF71EFC3369DB07FCD4122013
:10CED000FEF718FC3369002BFCDA0026A660284612
:10CEE000FFF777FF6B68C4F81068DB68C4F8146854
:10CEF000C4F81C684BB90A4BA3614FF0FF33636160
:10CF0000A36843F00103A36070BD064BF4E700BFC4
:10CF10007830002000380240401400400300200216
:10CF2000003C30C0083C30C038B50378012B0446C3
:10CF300017D0456DFFF74DFF0023C5F81C38AB60D7
:10CF4000AB63084B9C420CD14320FFF740FC064BDF
:10CF50005A6B22F080025A635A6D22F080025A65A1
:10CF60005B6D38BD7830002000380240F8B5446D64
:10CF7000054600212046FFF756FFA96D00234FF01C
:10CF800001128F68C4F834384FF00066C4F81C28CA
:10CF90004FF0FF3004EB431201339F42C2F80069A7
:10CFA000C2F8006BC2F80809C2F8080BF2D20B688D
:10CFB0006A6DEB65636210231361166916F0100643
:10CFC000FBD11220FEF79EFBD4F8003823F4FE6359
:10CFD000C4F80038A36943F4402343F01003A3616D
:10CFE0000923C4F81038C4F814380A4BEB604FF02A
:10CFF000C043C4F8103B084BC4F8003BC4F81069A8
:10D00000C4F80039EB6D03F1100243F48013EA65B4
:10D01000A362F8BD4CDF000840800010426D90F81C
:10D020004E10D2F8003823F4FE6343EA0113C2F82D
:10D03000003870472DE9F8430EB200EB86090D4623
:10D04000D9F80C2038491368446D03F00303002716
:10D0500051F8238069016318C3F8107B05F11003B0
:10D0600001279F409369002B3AD0B2F812C005F116
:10D0700058035B014CEA080C44F803C0D4F81C3890
:10D080001F4321440023C4F81C78C1F810395369A8
:10D090000127691EAF4083B3138A928B9B08012A34
:10D0A00088BF53434031C26D04EB81019E1842EAB0
:10D0B0000343C6654B6020462946FFF7B4FED9F806
:10D0C0000C301B8A43EA855348356D0143EA080357
:10D0D0006351D4F81C381F43C4F81C78BDE8F883AA
:10D0E00004EB461CDCF8003B23F40043CCF8003B87
:10D0F000D4F81C3823EA0707C3E705F13F0304EB24
:10D1000083030A4A5A6004EB461629462046FFF775
:10D110008AFED6F8003923F40043C6F80039D4F863
:10D120001C3823EA0707D7E73CDF000800040002A9
:10D13000826D1268C265FFF74CBE5831436D4901DC
:10D140005B5813F4004004D013F4001F0CBF0220FE
:10D15000012070474831436D49015B5813F400408A
:10D1600004D013F4001F0CBF02200120704700EB15
:10D1700081011346C9680822096A1846FBF79EB95F
:10D1800000EB810330B5DD68AA691368136119B932
:10D19000402B84BF402313606B8A1468426D1C448B
:10D1A000013CB4FBF3F46343033323F0030302EBCA
:10D1B000411043EAC44343F0C043C0F8103B2B681E
:10D1C00003F00303012B09B20ED1D2F8083802EBA9
:10D1D000411013F4807FD0F8003B14BF43F080531C
:10D1E00043F00053C0F8003B02EB4112D2F8003B81
:10D1F00043F00443C2F8003B30BD0000F8B52A4CB0
:10D20000666D06EB40130546D3F8087BC3F8087B30
:10D2100038070AD5D6F81438190706D504EB850364
:10D220002946DB6820465B689847FA0720D5D6F880
:10D230001438DB071CD5AE1C04EB86035968C5B94E
:10D240008B69488A5F68B7FBF0F200FB127282B903
:10D2500018681A6990420CD2121AC3E900253023CB
:10D2600083F3118810482946FFF78AFF85F3118858
:10D27000F8BD012303FA05F2638923EA02036381FF
:10D28000CB6813B1294608489847302383F31188A7
:10D2900004EB86046368986941680C30FEF79CFCD7
:10D2A000002383F31188E3E77830002000EB81034B
:10D2B00070B5DD68436D6C69266826614A014EBB16
:10D2C0001A444FF40020C2F810092A6802F0030241
:10D2D000012A0AB20ED1D3F8080803EB421410F465
:10D2E000807FD4F8000914BF40F0805040F0005017
:10D2F000C4F8000903EB4212D2F8000940F00440E0
:10D30000C2F80009D3F8340801228A400243C3F866
:10D31000342870BD19B9402E84BF40202060206899
:10D320002E8A8419013CB4FBF6F440EAC44040F074
:10D3300000501A44C7E700002DE9F843414DD5F8E5
:10D340005480470108EB07030446D3F80899C3F853
:10D35000089919F0010F19D0D8F81038DB0715D546
:10D36000861C05EB860359684B6918681A69904258
:10D370002DD2121A00261A605E60302383F31188C2
:10D3800021462846FFF792FF86F3118819F0800F97
:10D390001BD0D8F834380126A640334215D005EB0F
:10D3A00084036D6DD3F80CC0DCF814200134D2F87E
:10D3B00000E005EB04342F445168714522D3D5F8C1
:10D3C000343823EA0606C5F83468BDE8F88301233B
:10D3D00003FA04F22B8923EA02032B818B6813B131
:10D3E000214628469847302383F3118805EB8606AB
:10D3F0000021736858690C30FEF7EEFB002383F3BD
:10D400001188C3E7BCF81000AEEB0103834228BFCC
:10D410000346D7F8180980B2B3EB800FD5D89068CF
:10D42000A0F1040959F8048FC4F80080A0EB0908A2
:10D430009844B8F1040FF5D818440B449060536039
:10D44000BAE700BF783000202DE9F74FAA48466DB3
:10D450007569B3691D4015F480577561044606D09F
:10D46000FEF736FF03B0BDE8F04FFEF73BBC002DE2
:10D4700012DAD6F8003EA0489A071EBFD6F8003E42
:10D4800023F00303C6F8003ED6F8043823F0010366
:10D49000C6F80438FEF784FF2B0505D59648FFF73C
:10D4A00098FC9548FEF74EFFA8040CD5D6F808382E
:10D4B00013F0060FF36823F470530CBF43F41053BA
:10D4C00043F4A053F360290704D56368DB680BB10C
:10D4D00089489847EA0200F18A80AB023AD5636D29
:10D4E00000934FF000084FF001094FF0300A009B05
:10D4F00003EB4812D2F8003B03F44023B3F5802F2E
:10D5000020D1D2F8003B002B1CDA628909FA08F31B
:10D5100008F1020B22EA030304EB8B0263815268D9
:10D52000D26812B14146744890478AF3118804EBDF
:10D530008B035B68986941680C30FEF74DFB002354
:10D5400083F31188A36D08F101089B685FFA88F8DE
:10D550009845CCD9E80619D5D4F854C0DCF8202079
:10D56000C2F30A1002F00F0302F4F012B2F5802F9A
:10D5700000F09780B2F5402F08D104EB830300221E
:10D58000DB681B6A0CF5805C90427DD12903D6F8DC
:10D59000184813D5E20302D50020FFF72FFEA3039E
:10D5A00002D50120FFF72AFE670302D50220FFF70C
:10D5B00025FE260302D50320FFF720FE6D037FF52D
:10D5C00051AFE00702D50020FFF7B6FEA10702D554
:10D5D0000120FFF7B1FE620702D50220FFF7ACFE83
:10D5E00023077FF53FAF0320FFF7A6FE3AE7636D01
:10D5F00000934FF000094FF0010B4FF0300AA36D7C
:10D600009B685FFA89F84345FFF467AF009B03EB23
:10D610004813D3F8002902F44022B2F5802F30D10C
:10D62000D3F80029002A2CDAD3F8002942F09042DE
:10D63000C3F80029D3F80029002AFBDB4146606DBE
:10D64000FFF7F1FB22890BFA08F322EA0303238197
:10D6500008F1020304EB83025268926822B141464A
:10D66000254801939047019B8AF3118804EB8303BB
:10D6700000215B6858690C30FEF7AEFA002383F393
:10D68000118809F10109BAE7910708BFDCF80070B9
:10D69000072A98BF03F8017B02F1010298BF3F0AF5
:10D6A00072E7023304EB83020CF5805C5268D2F817
:10D6B00018E0DEF80820DEE9001EA1EB0E0E0021C6
:10D6C00088420AD104EB830463689B699A68024428
:10D6D0009A605A681044586058E711F0030F08BF69
:10D6E000DCF800708E4588BF02F8017B01F1010172
:10D6F00088BF3F0AE4E700BF78300020436D03EBAA
:10D700004111D1F8003B43F40013C1F8003B7047CE
:10D71000436D03EB4111D1F8003943F40013C1F814
:10D7200000397047436D03EB4111D1F8003B23F4FE
:10D730000013C1F8003B7047436D03EB4111D1F872
:10D74000003923F40013C1F80039704710B5074CB5
:10D750002046FEF7EFFC064BE36100236362A36201
:10D76000044BE3623033236310BD00BFD830002088
:10D7700000300140160001060F4B1A6C42F00802FF
:10D780001A641A6E42F008021A660C4A1B6E9368FD
:10D7900043F0080393600A4B40F2A3129A624FF0E1
:10D7A000FF32DA6200229A615A63DA605A6001221B
:10D7B0005A611A60704700BF00380240002004E040
:10D7C000000C0040094A08B51169D3680B40D9B272
:10D7D000C9439B07116107D5302383F31188FDF7F7
:10D7E0008FFF002383F3118808BD00BF000C0040A9
:10D7F0000248034BC360FEF731BC00BF1431002068
:10D8000000040040C36800221A601A61DA6822F03E
:10D81000FF02DA607047C26810B51469D36823400C
:10D82000DCB2E443DB07014614610DD50378042B19
:10D8300003D102230370FFF7E5FF4B685B681BB160
:10D840000846BDE81040184710BD000010B5064C52
:10D850002046FEF70AFC042323744FF08043E36163
:10D860000023237610BD00BF24310020C36970B5AA
:10D870001A69DD681540EAB2D243AE0704461A6160
:10D8800003D543681B6903B19847680704D56368EB
:10D890009B690BB120469847290704D563681B6A2A
:10D8A0000BB120469847EA0604D563689B6A0BB122
:10D8B00020469847EB0706D563689B681BB1204656
:10D8C000BDE87040184770BD024AD36843F0C003FA
:10D8D000D36070470010014010B5084C084A002181
:10D8E0002046FEF7EDFB074BC4F85431A3F1765305
:10D8F000A3F54653C4F8583110BD00BF4431002091
